:200000000C94AD110C94DE110C94DE110C94DE110C94DE110C94DE110C94DE110C94DE1199
:200020000C94DE110C94DE110C94DE110C94DE110C94DE110C94DE110C94DE110C94DE1148
:200040000C94DE110C94AA9B0C94DE110C94DE110C94DE110C94DE110C94FC7B0C94B37A0C
:200060000C94DE110C942B730C94DE110C94DE110C94DE110C94DE110C94DE110C94DE1159
:200080000C94DE110C94DE110C94DE110C94DE110C94DE110C94DE110C94DE110C94DE11E8
:2000A0000C94DE110C94DE110C94DE110C94DE110C94DE110C94DE110C94DE110C941FB2E6
:2000C0000C94DE110C94DE110C94DE110C94DE110C94DE110C94DE110C949CB00C94DE114B
:2000E0000C94DE118DBD90BD93BD96BD99BD9CBD9FBDA2BDA5BD30793379227926792C7937
:200100006A7937793B794179457949794F79537957796A795D7961796579CF79D479D979A2
:20012000E379ED79667AF779FF79077A117A1B7A257A347A3E7A667A487A527A5C7AB87C17
:20014000BD7CE77CEC7CCC7CD87CFB7C007DA27C084AD73B3BCE016E84BCBFFDC12F3D6C7C
:2001600074319ABD56833DDA3D00C77F11BED9E4BB4C3E916BAAAABE000000803F05A84C79
:20018000CDB2D44EB93836A9020C50B9918688083CA6AAAA2ABE000000803F004E414E492D
:2001A0004E495459494E46CDCCCC3D0AD7233C17B7D13877CC2B329595E6241FB14F0A0068
:2001C0000020410000C84200401C4620BCBE4CCA1B0E5AAEC59D746364696E6F707375787E
:2001E000585B0047322F47332062616420706172616D65746572730A00473238205A2046F4
:200200006F7262696464656E0A003030334200205A3A200020593A200042656420583A2034
:20022000004D65736820706F696E742063616E6E6F74206265207265736F6C7665640A00CF
:200240004B494C4C45442E200048656174696E6720646F6E652E0048656174696E672E2ECB
:200260002E0042656420646F6E652E0020573A004265642048656174696E672E002F2F2009
:20028000007A5F6D696E3A2000795F6D696E3A2000785F6D696E3A20005265706F72746917
:2002A0006E6720656E6473746F70207374617475730A00205A00205900580020204D6178CD
:2002C0003A2000205A00205900580020204D696E3A20004F6E20004F666600536F66742007
:2002E000656E6473746F70733A2000486F74656E64206F6666736574733A0000011110302C
:2003000025FF362F3723FF39383E21FFFFFF0907FFFFFF0A171618FFFF241A191BFFFF2242
:2003200009410642020845030844FFFFFFFFFFFF206F7574206F662072616E67650A00539C
:200340006572766F20003A200020536572766F200020643A0020693A0020703A0043290A57
:200360000061626C656420286D696E2074656D702000436F6C6420657874727564657320CD
:2003800061726520004F66660A0046616465204865696768742000426564204C6576656CB4
:2003A000696E6720004661696C656420746F20656E61626C6520426564204C6576656C6964
:2003C0006E670A004D65736820706F696E742063616E6E6F74206265207265736F6C7665BD
:2003E000640A004D34323120696E636F727265637420706172616D65746572207573616711
:20040000650A003A20007A5F6D696E3A20202D3230207A5F6D61783A20203230005A204F09
:20042000666673657420004E6F2063617365206C696768740A0030430053746172742070B8
:2004400072696E742066726F6D2073657269616C0A005072696E742066696E6973686564EA
:200460002E0053746F70207072696E742066726F6D2073657269616C0A0063757272656E4E
:2004800074205A2076616C75653A20007265636F766572205A2076616C75653A00726573A6
:2004A0006574205A2076616C75653A007A70726F62655F7A6F666673657420646F65736E47
:2004C0002774206368616E67652C2000456E642066696C65206C6973740A00426567696E0D
:2004E0002066696C65206C6973740A002F00555342204469736B207072696E74696E6720E7
:200500006279746520004E6F7420555342204469736B207072696E74696E670A00556E6B5E
:200520006E6F776E20636F6D6D616E643A2022003044004732380A473239003030373900CD
:200540003030373700542564204625640A004D31303920542564205325640A004D36303327
:20056000322053256C7520212573004D363030350A4D313137205072696E74696E672E2E28
:200580002E0047323820582059004D36303234004D363032332025730030310030320030AF
:2005A000330047323800473238205900473238205800473238003044003030334500437252
:2005C000656174426F7420463433302072656164792E005072696E742070617573656400AD
:2005E000303030300030373030003A09003033463000756E6B6E6F776E207661720A0030A5
:200600003338300030333730003033363000303335300030333430003033333000303332C2
:20062000300030333130003033303000756E6B6E6F776E207661725F6C656E0A0030313150
:200640003700303131350030313133003031313100303137410030313739003031373200A0
:20066000303137310030313139003031313000303131410030313046003031304500303143
:2006800030440030313043003031304200303130360030313038003031303100303130302C
:2006A000003030323100303032320030303230003037303000303032420030303232003062
:2006C00030323100303032300030303330003030303000303031460030303634003030340D
:2006E000310030303532003030333000303032460030303236003030323500303032340012
:200700003030323300303036380030303439003030344100303034380030303437003030AD
:20072000343500303034360030303434003030343300303033300030303246003030323694
:2007400000303032350030303234003030323300555342206469736B2072656D6F76656480
:2007600000555342206469736B20696E73657274656400555342206469736B2072656164D5
:20078000790030303345003030373200303037310030303730003030353200303035320022
:2007A000253032643A25303264005368757474696E6720646F776E2E2E2000536875747467
:2007C000696E6720646F776E2E2E20004B494C4C45442E20004B494C4C20636175736564C3
:2007E00020627920746F6F206D75636820696E6163746976652074696D65202D20637572C6
:2008000072656E7420636F6D6D616E643A200053544F505045442E20005072696E74657275
:200820002073746F707065642064756520746F206572726F72732E20466978207468652085
:200840006572726F7220616E6420757365204D39393920746F20726573746172742E2028F8
:2008600054656D70657261747572652069732072657365742E2053657420697420616674D9
:2008800065722072657374617274696E67290A0053544F502063616C6C6564206265636175
:2008A000757365206F6620424C546F756368206572726F72202D20726573746172742077F2
:2008C000697468204D3939390A0042696C696E656172204C6576656C696E6720477269648F
:2008E0003A0A0020706F736974696F6E206F7574206F662072616E67652E0A003F50726FDD
:200900006265200052756E6E696E6720696E204452592D52554E206D6F64650A0047323966
:20092000204175746F20426564204C6576656C696E670A0028422961636B00284629726F39
:200940006E74002852296967687400284C29656674003F2856296572626F7365206C6576BD
:20096000656C20697320696D706C61757369626C652028302D34292E0A00426164205A2018
:2009800076616C75650A004E6F2062696C696E65617220677269640A0020636F6C642065F6
:2009A0007874727573696F6E2070726576656E7465640A004361703A454D455247454E4320
:2009C000595F5041525345523A300A004361703A434153455F4C494748545F425249474812
:2009E000544E4553533A300A004361703A544F47474C455F4C49474854533A300A004361A4
:200A0000703A534F4654574152455F504F5745523A300A004361703A4C4556454C494E47BD
:200A20005F444154413A310A004361703A5A5F50524F42453A310A004361703A4155544F4D
:200A40004C4556454C3A310A004361703A5052494E545F4A4F423A310A004361703A50522F
:200A60004F47524553533A300A004361703A4155544F5245504F52545F54454D503A310AC2
:200A8000004361703A454550524F4D3A310A004649524D574152455F4E414D453A4372659A
:200AA0006174426F7420352E3520284C594E2920534F555243455F434F44455F55524C3A29
:200AC000687474703A2F2F7777772E4372656174426F742E636F6D2F656E2F737570706F42
:200AE00072742E68746D6C2050524F544F434F4C5F56455253494F4E3A312E30204D41435C
:200B000048494E455F545950453A4372656174426F74204634333020455854525544455232
:200B20005F434F554E543A3220555549443A30303030303030302D303030302D3030303076
:200B40002D303030302D3030303030303030303030300A005072696E742066696E69736883
:200B600065642E005072696E742066696E69736865642E005072696E74696E672E2E2E0004
:200B80005072696E74696E672E2E2E0053657474696E672054726176656C20416363656C1C
:200BA00065726174696F6E3A200053657474696E67205265747261637420416363656C65B9
:200BC000726174696F6E3A200053657474696E67205072696E7420416363656C657261747F
:200BE000696F6E3A200053657474696E67205072696E7420616E642054726176656C204108
:200C00006363656C65726174696F6E3A200020643A0020693A0020703A004B642000236450
:200C20006566696E65202044454641554C545F004B69200023646566696E65202044454698
:200C400041554C545F004B70200023646566696E65202044454641554C545F0050494420F5
:200C60004175746F74756E652066696E6973686564212050757420746865206C61737420E6
:200C80004B702C204B6920616E64204B6420636F6E7374616E74732066726F6D2062656C53
:200CA0006F7720696E746F20436F6E66696775726174696F6E2E680A005049442041757435
:200CC0006F74756E65206661696C6564212074696D656F75740A00504944204175746F7408
:200CE000756E65206661696C6564212054656D706572617475726520746F6F206869676826
:200D00000A00204B643A2000204B693A2000204B703A20000A20436C617373696320504998
:200D200044200A002054753A2000204B753A2000206D61783A2000206D696E3A20002064C6
:200D40003A200020626961733A20003044004D363030310046696C616D656E74204572721F
:200D60006F72004D36303033003037004D36303033003034003033373000303336300030D8
:200D800033353000303334300030333330003033323000303331300030333030003030344E
:200DA000410030303439003030343800303034370030303436003030343500303034340033
:200DC00030303433003033333000466F6C64657220697320456D7074792100303035300019
:200DE0003033383000303337300030333630003033353000303334300030333330003033DD
:200E00003230003033313000303330300030303236003030323500303032340030303233CF
:200E20000030303330003030324600303032310030303639003030363800303036450030AC
:200E40003036460030303644003030373000303037320030303731005072696E74696E6769
:200E60002E2E2E0030303737003030373500303037330000002200250028002B002E00318B
:200E800000340002010000050108010B01000020002300260029002C002F003200000100E0
:200EA0000003010601090105050505070508080808020202020A0A0808040404040101019E
:200EC00001010101010303030303030303040707070C0C0C0C0C0C0C0C0202020206060662
:200EE00006060606060B0B0B0B0B0B0B0B01021020200808102040102040800201020108AB
:200F000004020101020408102040808040201008040201800402018040201008040201083E
:200F20000402010102040810204080010204081020408000000A0B02090C0D0E080703044F
:200F400001000000000000000000000000000000000000000000000000000000000000127E
:200F6000111000000000000000000000000000000000000000000000005625732E253032AD
:200F8000642530326425303264002573202564202564004B494C4C45442E2000202D204974
:200FA0006E76616C6964206578747275646572206E756D62657220210A002020436F6E6666
:200FC000696742756666657242797465733A20002020506C616E6E657242756666657242DA
:200FE000797465733A20002046726565204D656D6F72793A2000207C20417574686F723AD4
:20100000204372656174426F74204C594E0A00466562203138203230313900204C61737449
:2010200020557064617465643A2000204669726D776172653A200020536F6674776172654D
:201040002052657365740A00205761746368646F672052657365740A002042726F776E209D
:201060006F75742052657365740A002045787465726E616C2052657365740A00506F7765C0
:201080007255700A004372656174426F74203344205072696E746572205374617274203ED4
:2010A0003E3E0A00205A3A0020593A0020583A00656E6473746F7073206869743A20004E14
:2010C0006F204C696E65204E756D626572207769746820636865636B73756D2C204C6173B5
:2010E00074204C696E653A20004B494C4C45442E200053544F505045442E20005072696E71
:201100007465722073746F707065642064756520746F206572726F72732E2046697820743E
:201120006865206572726F7220616E6420757365204D39393920746F207265737461727498
:201140002E202854656D70657261747572652069732072657365742E2053657420697420B5
:2011600061667465722072657374617274696E67290A004E6F20436865636B73756D207720
:20118000697468206C696E65206E756D6265722C204C617374204C696E653A200063686587
:2011A000636B73756D206D69736D617463682C204C617374204C696E653A20004C696E652C
:2011C000204E756D626572206973206E6F74204C617374204C696E65204E756D6265722B09
:2011E000312C204C617374204C696E653A20004D313130004D3331004D3834205820592082
:201200005A20450053442072656164206572726F720A005072696E742066696E6973686555
:20122000642E00446F6E65207072696E74696E672066696C650A0020496E76616C6964203A
:20124000657874727564657220002066697273740A005A0059005800486F6D652000207263
:20126000656164790A00555342204469736B2072656D6F76650A00555342204469736B20BF
:20128000696E736572740A00555342204469736B2072656D6F76650A0046696E64206669F2
:2012A0006C652C206E6F74206469720A0070012C0190012701B0012201C0011D01F0011844
:2012C000011002130130020E016002090190020401C002FF000003FA004003F5008003F03A
:2012E00000D003EB002004E6007004E100E004DC004005D700C005D2004006CD00D006C8AD
:20130000008007C3003008BE00F008B900C009B400B00AAF00B00BAA00D00CA500000EA062
:2013200000500F9B00C01096005012910000148C00C0158700B0178200B0197D00D01B786C
:2013400000001E730040206E0090226900F024640040275F0090295A00E02B5500102E50D4
:201360000020304B0010324600E033410090353C001037370070383200A0392D00B03A2885
:2013800000A03B2300603C1E00103D1900903D1400103E0F00703E0A00C03E0500003F00F7
:2013A00000403FFBFF803FF6FFC03FF1FF4572723A204D415854454D50204348414D4245B2
:2013C00052004D415854454D5020747269676765726564004572723A204D494E54454D5025
:2013E000204348414D424552004D494E54454D5020747269676765726564004572723A2061
:201400004D494E54454D5020424544004572723A204D494E54454D50004D494E54454D5010
:2014200020747269676765726564004572723A204D415854454D5020424544004572723AE2
:20144000204D415854454D50004D415854454D502074726967676572656400000021002412
:201460000027002A002D003000330001010000040107010A0130303044003030304200309B
:20148000303039003030303700303030340030303033003030303800303030360030303047
:2014A00031003030303000303037300030303731003030373200303030450030303043003B
:2014C00030303137003030313500303031330030303131003030313900303031300030300D
:2014E000314100303030460030303741003030373900313843330030303638003138433370
:2015000000303035380030333346003030363800303333460030303538003138433300309C
:201520003036300031384333003030353000303032330025303264253032642530326400EB
:2015400025303464253032642530326400303032340030303236003030343000303034459D
:20156000003030363900303033300030303246003030373200303037310030303730003079
:201580003036460030303645003030364400303036420030303641003030373900303037D4
:2015A00037003030354400303034430030303639003030363800303033420030303431000D
:2015C00030303639003030363800434F4D4D554E49434154494F4E0044525952554E00456F
:2015E00052524F525300494E464F004543484F002569730025696D202569730025696820D5
:2016000025696D2025697300256964202569682025696D2025697300256979202569642031
:201620002569682025696D20256973005072696E742074696D653A200050726F7465637461
:2016400065642050696E0A00202F002040002042403A0020403A006F6B00EB15E615DF1582
:20166000D815CA156F66660044454255473A0020453A00205A3A0020593A0020436F756E07
:201680007420583A0020453A00205A3A0020593A00583A0020204D383531205A005A2D5010
:2016A000726F6265204F666673657420286D6D293A0A0020440020490020204D333034205B
:2016C000500020440020490020204D33303120500020440020490020500020204D333031FE
:2016E0002045005049442073657474696E67733A0A00205A0020204D34323020530041750D
:20170000746F20426564204C6576656C696E673A0A0020590020580020204D323138205494
:2017200000486F74656E64206F6666736574733A0A00204500205A002059002058002042B7
:201740000020540020204D323035205300416476616E6365643A20533C6D696E5F666565AC
:2017600064726174653E20543C6D696E5F74726176656C5F66656564726174653E20423CBF
:201780006D696E5F7365676D656E745F74696D655F6D733E20583C6D61785F78795F6A65B0
:2017A000726B3E205A3C6D61785F7A5F6A65726B3E20453C6D61785F655F6A65726B3E0AF2
:2017C0000020540020520020204D323034205000416363656C65726174696F6E2028756E9B
:2017E0006974732F7332293A20503C7072696E745F616363656C3E20523C726574726163C5
:20180000745F616363656C3E20543C74726176656C5F616363656C3E0A00204500205A0003
:2018200020590020204D3230312058004D6178696D756D20416363656C65726174696F6ECF
:201840002028756E6974732F7332293A0A00204500205A0020590020204D323033205800DA
:201860004D6178696D756D206665656472617465732028756E6974732F73293A0A002045C8
:2018800000205A0020590020204D393220580053746570732070657220756E69743A0A004B
:2018A00020204D3230302044300A0020204D32303020543120440020204D323030204400C0
:2018C0002044697361626C65640A0046696C616D656E742073657474696E67733A0020208B
:2018E000473231202020203B20556E69747320696E206D6D0A003036003035003034004DD9
:201900003630313000696E76616C6964207661726961626C6520616464726573733A09006A
:20192000656E7175657565696E672022006563686F3A000000000000000000000000000056
:20194000004842000048420000A041000000005761726E696E673A20486F6D696E6720429E
:20196000756D702044697669736F72203C20310A000202040000A0400000A0400000004056
:201980000000C8430000964300009643FFFFFFD0070000D007000064000000B80B000000B8
:2019A000009643000096430000204100002042FB7A9D42CD3B034300002044000011432434
:2019C000F4D43050C38E20C2A24017828B7011127A910D816CD90AA861E108C7586607612C
:2019E0005143061E4B5D05C145A7041A411104093D9803713931034036DB0265339102D450
:201A0000305402802E1D02632CEE01752AC501B028A001102781018F2564012B244B01E0CA
:201A2000223401AC211F018D200D01801FFC00841EED00971DDF00B81CD200E61BC600205D
:201A40001BBC00641AB200B219A8000A19A0006A189900D117910040178B00B51684003153
:201A6000167E00B31579003A157300C7146F0058146A00EE1366008813630025135E00C7ED
:201A8000125B006C12570015125400C111510070114F0021114B00D61049008D10470046C0
:201AA00010440002104200C00F4000800F3E00420F3C00060F3B00CB0E3800930E37005C80
:201AC0000E3500270E3400F30D3200C10D3100900D3000600D2E00320D2D00050D2C00D93E
:201AE0000C2B00AE0C2900850C29005C0C2700350C27000E0C2600E80B2400C40B2400A031
:201B00000B23007D0B23005A0B2100390B2100180B2000F80A1F00D90A1E00BB0A1E009D1C
:201B20000A1D00800A1D00630A1C00470A1B002C0A1B00110A1A00F7091A00DD091900C47F
:201B4000091900AB091900920917007B091800630917004C09160036091600200916000ABC
:201B6000091500F5081500E0081400CC081400B8081400A4081400900813007D0812006B10
:201B8000081300580812004608120034081100230811001208110001081100F0071000E0A3
:201BA000071000D0071000C0071000B0070F00A107100091070E0083070F0074070F0065A4
:201BC000070E0057070E0049070E003B070D002E070E0020070D0013070D0006070D00F926
:201BE000060C00ED060D00E0060C00D4060C00C8060C00BC060C00B0060C00A4060B009943
:201C0000060C008D060B0082060B0077060B006C060B0061060A0057060B004C060A004205
:201C2000060A0038060A002E060A0024060A001A060A001006090007060A00FD050900F47B
:201C4000050900EB050900E2050900D9050900D0050900C7050900BE050900B5050800ADB8
:201C6000050800A50509009C050800940508008C050800840508007C050800740508006CBA
:201C8000050700650508005D050700560508004E050700470507004005080038050700318B
:201CA0000507002A050700230507001C050600160507000F0507000805060002050700FB33
:201CC000040600F5040700EE040600E8040600E2040700DB040600D5040600CF040600C9BD
:201CE000040600C3040600BD040600B7040600B1040500AC040600A6040600A00405009B21
:201D000004060095040500900406008A04050085040500800406007A040500750405007065
:201D20000405006B04050066040500610405005C04050057040500520405004D040500488F
:201D4000040500430405003E0404003A04050035040500300404002C0405002704040023A8
:201D60000405001E0404001A04040016040500110404000D040400090405000404040000A7
:201D8000040400FC030400F8030400F4030400F0030400EC030400E8030400E4030400E09A
:201DA000030400DC030400D8030400D4030400D0030400CC030400C8030300C50303002418
:201DC000F404D9201BC40C5C0E9804C4095F0265077101F405F900FB04B30048048700C1DD
:201DE0000369005803550003034500BE023A008402310053022A002902250004022000E4F2
:201E0000011C00C8011900AF0117009801140084011300710110006101100051010E004320
:201E2000010D0036010B002B010B0020010B00150109000C01090003010800FB000800F3B8
:201E4000000800EB000700E4000600DE000600D8000600D2000600CC000500C7000500C2A5
:201E6000000500BD000400B9000400B5000400B1000400AD000400A9000400A5000300A2C9
:201E80000003009F0004009B000300980003009500020093000300900003008D0002008B89
:201EA000000300880002008600020084000300810002007F0002007D0002007B000200790D
:201EC00000020077000100760002007400020072000100710002006F0002006D0001006C69
:201EE0000002006A00010069000200670001006600010065000100640002006200010061AB
:201F0000000100600001005F0002005D0001005C0001005B0001005A0001005900010058DA
:201F20000001005700010056000100550001005400010053000000530001005200010051FB
:201F4000000100500001004F0001004E0000004E0001004D0001004C0001004B0000004B11
:201F60000001004A0001004900010048000000480001004700010046000000460001004520
:201F8000000000450001004400010043000000430001004200000042000100410000004128
:201FA000000100400001003F0000003F0001003E0000003E0001003D0000003D0001003C2C
:201FC0000000003C0000003C0001003B0000003B0001003A0000003A00010039000000392A
:201FE000000100380000003800000038000100370000003700010036000000360000003626
:2020000000010035000000350000003500010034000000340000003400010033000000331C
:20202000000000330001003200000032000000320001003100000031000000310001003011
:2020400000000030000000300001002F0000002F0000002F0000002F0001002E0000002E06
:202060000000002E0001002D0000002D0000002D0000002D0001002C0000002C0000002CF8
:202080000000002C0001002B0000002B0000002B0000002B0001002A0000002A0000002AE8
:2020A0000000002A00010029000000290000002900000029000000290001002800000028D7
:2020C0000000002800000028000000280001002700000027000000270000002700000027C4
:2020E0000001002600000026000000260000002600000026000100250000002500000025B1
:2021000000000025000000250000002500010024000000240000002400000024000000249B
:20212000000100230000002300000023000000230000002300000023000000230001002286
:20214000000000220000002200000022000000220000002200010021000000210000002171
:2021600000000021000000210000002100000021000100200000002000000020000000205A
:20218000000000200000002000000020000000200001001F0000001F0000001F0000001F42
:2021A0000000001F0000001F0000001F0001001E0000001E0000001E0000001E0000004DFC
:2021C000383420582059205A204500526573656E643A20006F6B0020636F6C6420657874FB
:2021E000727573696F6E2070726576656E7465640A004372656174426F7420463433302017
:2022000072656164792E005072696E74696E672E2E2E005072696E742070617573656400F7
:2022200046696C616D656E74204572726F7200303034310030303431004372656174426F1A
:202240007420463433302072656164792E002E0A0046696C652073656C65637465640A007F
:202260002053697A653A200046696C65206F70656E65643A20006F70656E206661696C6501
:20228000642C2046696C653A20004E6F772066726573682066696C653A20004E6F77206476
:2022A0006F696E672066696C653A200050726F62696E67206661696C65640A004572726F5F
:2022C000723A00205A3A200020593A200042656420583A2000696E76616C6964207661727E
:2022E0006961626C6520616464726573733A0900080808080800000000004368616D626530
:20230000720A006265640A002C2073797374656D2073746F70706564212048656174657262
:202320005F49443A20005072696E7465722068616C7465642E206B696C6C28292063616C46
:202340006C6564210A004163746976652045787472756465723A2000ACC511241FBECFEFB3
:20236000D1E2DEBFCDBF00E00CBF13E0A0E0B2E0EEEFFCEA01E00BBF02C007900D92A23990
:20238000B107D9F724E1A2E9B3E001C01D92A935B207E1F711E1CDEAD1E100E006C02197FA
:2023A0000109802FFE010E94C2D5CC3AD10780E00807A9F70E9496BE0C947DD60C940000B6
:2023C0002F923F924F925F926F927F928F929F92AF92BF92CF92DF92EF92FF920F931F936B
:2023E000CF93DF93CDB7DEB7C855D1090FB6F894DEBF0FBECDBF0091FA0620E6029F8001F9
:20240000112408541C4F8091920680FF1AC0EDE2F9E184917F013FEFE31AF30A811102C004
:20242000780104C00E94166FF701F3CFD7018D917D01882319F00E94166FF8CF8AE00E945C
:20244000166F1092B2031092B1038FE380933B0510923A05109239051092AC031092AD0321
:202460001092AE031092AF03F80180810F5F1F4F8032D1F38E34B1F4818190ED980F9A3012
:2024800020F08D3211F08B3269F43296DF0131962C9120532A30D0F3CD01FC010196208193
:2024A0002032D9F3F093D005E093CF057F01BFEFEB1AFB0A10816AE270E0C7010E94FBD5C0
:2024C000009731F0FC01319780818032E1F311821D3429F0143519F0173409F0DEC0F701CF
:2024E00080812FEFE21AF20A8032C9F380538A3008F0D3C010933B052091390530913A056D
:202500004AE03196429FC001439F900D1124DF0111972C91022E000C330B20533109280FD1
:20252000391F808180538A3060F330933A0520933905DF0131968C918032D9F31D3439F5AE
:20254000273731056CF425373105E4F42C313105C9F02E313105B1F027313105C1F412C086
:20256000273847E1340771F02CF4203A83E0380771F408C02C3897E1390721F02E38E7E194
:202580003E0729F4B093B203A093B10386C01092B2031092B1030091CF0561E070E0CD0143
:2025A00001964C91442309F478C04132B9F41D34A9F42032310571F49093B2038093B10371
:2025C00063E270E00E94FBD5009709F466C0DC011C9263C02039F7E13F0771F35FEBD52E64
:2025E000D40EE9E1ED15C0F1FC01BE2FAF2F51915032D9F38B2F9A2FE0EDE50FEA3040F0F6
:20260000E3EDE50FE23020F05B3211F00C94F729DC01AD2CB12C7501F3E0F594E794FA9517
:20262000E1F7A70144555C4F7A014D2D4770FB0102C0EE0FFF1F4A95E2F7AF01F701508120
:20264000452B4083109711F0A01B01C0A0E0F501EE56FC4FA0830AC04091B1035091B20316
:20266000452B21F4B093B203A093B103DC014C9141544A3110F4DC0192CFFC01DF01319646
:202680009C9190539A30D0F3AD01CA014F5F5F4FDC01EC91E032C9F3EECF80913B058D34D1
:2026A00011F40C94D41C843511F40C949D29873411F00C94DA298091390590913A058C3196
:2026C000910509F49FC57CF4843091053CF482309105A4F597FF26C00C94F429049709F467
:2026E00053C50C94F4298A32910511F40C94FB1B4CF48D31910509F48AC74E9709F48BC7E2
:202700000C94F4298B35910511F40C94861B8C35910511F40C94921B8A35910511F00C94C1
:20272000F429E9C780915902882311F40C94F4290E9417400E94BAA70C94F429209159022E
:20274000222311F40C94F42911E0029709F010E00E94174082E50E94906E882309F42AC16C
:202760000E942E6E6B017C014090E7125090E8126090E9127090EA122091EB123091EC123B
:202780004091ED125091EE1229A33AA34BA35CA380919A0B90919B0BA0919C0BB0919D0BB4
:2027A0008DA39EA3AFA3B8A720919E0B30919F0B4091A00B5091A10B29A73AA74BA75CA783
:2027C00020E030E0A901C701B6010E9444CB882309F4C0C4A30192016DA17EA18FA198A512
:2027E0000E9444CB81110DC029A13AA14BA15CA169A57AA58BA59CA50E9444CB882309F444
:20280000A9C420E030E0A901C701B6010E9444CB881F8827881F181309C080E090E0A0E818
:20282000BFE389AF9AAFABAFBCAF08C020E030E040E85FEB29AF3AAF4BAF5CAFA301920169
:202840006DA17EA18FA198A50E94C0D269AB7AAB8BAB9CAB29A13AA14BA15CA169A57AA539
:202860008BA59CA50E94C0D26DAB7EAB8FAB98AF29A93AA94BA95CA9CA01B9010E94A9CBA8
:202880004B015C012DA93EA94FA958ADCA01B9010E94A9CB9B01AC01C501B4010E94C1D241
:2028A0000E942ED56DA77EA78FA798AB20E030E040E05FE30E94A9CB4B015C01A701960151
:2028C000C701B6010E94A9CB6B017C01A5019401C501B4010E94A9CB9B01AC01C701B601E6
:2028E0000E94C0D20E942ED59B01AC0169AD7AAD8BAD9CAD0E94A9CB4B015C012DA13EA18C
:202900004FA158A5C301B2010E94C1D220E030E040E05FE30E94A9CB6B017C016DA97EA970
:202920008FA998AD90582DA53EA54FA558A90E949DD39B01AC01C501B4010E94A9CB9B0100
:20294000AC01C701B6010E94C1D2A30192010E94C0D26B017C0129A53AA54BA55CA569A11A
:202960007AA18BA19CA10E94C1D220E030E040E05FE30E94A9CB2B013C012DA53EA54FA504
:2029800058A969A97AA98BA99CA90E949DD39B01AC01C501B4010E94A9CB9B01AC01C3018F
:2029A000B2010E94C1D229A13AA14BA15CA10E94C0D214C089E40E94906E882329F00E9426
:2029C0002E6E6B017C0103C0C12CD12C76018AE40E94906E8823D9F00E942E6E69A77AA75D
:2029E0008BA79CA720E030E0A901C701B6010E9444CB81111AC020E030E0A90169A57AA525
:202A00008BA59CA50E9444CB81110FC0A3C320E030E0A901C701B6010E9444CB882309F43B
:202A200099C319A61AA61BA61CA6D701C601B05889A39AA3ABA3BCA329A53AA54BA55CA5DD
:202A400050582DA33EA34FA358A79C01AD01BC01CD010E94A9CB4B015C012DA13EA14FA1FA
:202A600058A5CA01B9010E94A9CB9B01AC01C501B4010E94C1D20E942ED52D966CAF7DAF16
:202A80008EAF9FAF2D978091E7129091E812A091E912B091EA128DA79EA7AFA7B8ABA7017F
:202AA0009601BC01CD010E94C1D269AF7AAF8BAF9CAF2091EB123091EC124091ED125091DB
:202AC000EE1229AB3AAB4BAB5CAB29A53AA54BA55CA569A97AA98BA99CA90E94C1D2219608
:202AE0006CAF7DAF8EAF9FAF219780919A0B90919B0BA0919C0BB0919D0B25968CAF9DAFCC
:202B0000AEAFBFAF259729AD3AAD4BAD5CADBC01CD010E94C0D26B017C0120919E0B3091AD
:202B20009F0B4091A00B5091A10B29962CAF3DAF4EAF5FAF299721962CAD3DAD4EAD5FAD10
:202B4000219729966CAD7DAD8EAD9FAD29970E94C0D24B015C018091EF129091F012A09131
:202B6000F112B091F21265968CAF9DAFAEAFBFAF65979C01AD016091A20B7091A30B80911B
:202B8000A40B9091A50B0E94C0D26DAB7EAB8FAB98AF2091F3123091F4124091F512509189
:202BA000F61269962CAF3DAF4EAF5FAF69976091A60B7091A70B8091A80B9091A90B0E94AC
:202BC000C0D261966CAF7DAF8EAF9FAF6197A701960169A17AA18BA19CA10E94A9CB2B0193
:202BE0003C01A50194016DA17EA18FA198A50E94A9CB9B01AC01C301B2010E94C1D22B018C
:202C00003C01A501940169A17AA18BA19CA10E94A9CB4B015C01A70196016DA17EA18FA153
:202C200098A50E94A9CB9B01AC01C501B4010E94C0D2A30192010E9434D36B017C0120E080
:202C400030E0A9010E9444CB87FF0AC02BED3FE049EC50E4C701B6010E94C1D26B017C017C
:202C6000112351F02BED3FE049EC50E4C701B6010E94C0D26B017C0120E030E0A901C70121
:202C8000B6010E9444CB811124C025962CAD3DAD4EAD5FAD25976DA57EA58FA598A90E94C9
:202CA00044CB811116C029962CAD3DAD4EAD5FAD299769A97AA98BA99CA90E9444CB811163
:202CC00008C0EBEDCE2EEFE0DE2EE9ECEE2EE0E4FE2E2D962CAD3DAD4EAD5FAD2D97C70183
:202CE000B6010E94A9CB9B01AC010E94A9CB4B015C012DA93EA94FA958ADCA01B9010E941E
:202D0000A9CB9B01AC01C501B4010E94C1D20E942ED54B015C012FE632E143E85AE30E94C6
:202D200044CB87FD13C2C501B4010E9436D40E940AD47AAB69AB672B21F481E090E09AAB8E
:202D400089ABA9A9BAA9BD0180E090E00E9448CB4B015C019B01AC01C701B6010E949DD3C4
:202D60006DA77EA78FA798ABA50194016DA97EA98FA998AD0E949DD32D966CAF7DAF8EAF53
:202D80009FAF2D97A501940161966CAD7DAD8EAD9FAD61970E949DD361966CAF7DAF8EAFA0
:202DA0009FAF61972DA53EA54FA558A9CA01B9010E94A9CB20E030E040E05FE30E94A9CB00
:202DC0009B01AC0160E070E080E89FE30E94C0D26DAB7EAB8FAB98AF65962CAD3DAD4EAD81
:202DE0005FAD659729873A874B875C8769968CAD9DADAEADBFAD69978D879E87AF87B88BAA
:202E000060912B0270912C02072E000C880B990B0E944ACB20914702309148024091490215
:202E200050914A020E94A9CB2AE037ED43E25CE30E94A9CB25966CAF7DAF8EAF9FAF25975E
:202E40000E94A77A9B01AC0128533F4F4F4F5F4F29962CAF3DAF4EAF5FAF299749A05AA0DD
:202E60006BA07CA022242394312C79E1D72E49A95AA92416350609F42BC10E941C800E943F
:202E8000A77ADC01CB0129962CAD3DAD4EAD5FAD2997821B930BA40BB50BB7FD11C00E944E
:202EA000A77A9B01AC0128533F4F4F4F5F4F29962CAF3DAF4EAF5FAF299780E00E94AD351E
:202EC000DA94DD20E9F12DA93EA94FA958AD6DA17EA18FA198A50E94A9CB4B015C012DA5C8
:202EE0003EA54FA558A9B201C3010E94A9CBA50194010E94C1D27B018C012DA93EA94FA93F
:202F000058ADB201C3010E94A9CB4B015C012DA53EA54FA558A96DA17EA18FA198A50E9490
:202F2000A9CB9B01AC01C501B4010E94C0D22B013C01C701D8018DA39EA3AFA3B8A74FC0EA
:202F4000B10180E090E00E9448CB2DA53EA54FA558A90E94A9CB4B015C010E949AD36B0156
:202F60007C01C501B4010E9424D54B015C01A701960169A17AA18BA19CA10E94A9CB2B0106
:202F80003C01A501940169A57AA58BA59CA50E94A9CB9B01AC01C301B2010E94C1D22B01E4
:202FA0003C01A501940169A17AA18BA19CA10E94A9CB4B015C01A701960169A57AA58BA5B0
:202FC0009CA50E94A9CB9B01AC01C501B4010E94C0D26DA37EA38FA398A759E1D52E920130
:202FE000A30169AD7AAD8BAD9CAD0E94C1D269837A838B839C832DA13EA14FA158A52196D3
:203000006CAD7DAD8EAD9FAD21970E94C1D26D837E838F8398872D962CAD3DAD4EAD5FAD4A
:203020002D9769857A858B859C850E94C1D269877A878B879C8761962CAD3DAD4EAD5FAD92
:2030400061976D857E858F8598890E94C1D26D877E878F87988B80914602882321F0CE0103
:2030600001960E9420BAC090D50789819A81AB81BC81898B9A8BAB8BBC8B8D819E81AF8170
:20308000B8858D8B9E8BAF8BB88F89859A85AB85BC85898F9A8FAB8FBC8FCE0141960E9485
:2030A000036F2596ECACFDAC0EAD1FAD25979E01235F3F4FAE01475E5F4FBE016B5E7F4F58
:2030C000CE0141960E94174C3FEF231A330ACFCEC090D50780919A0B90919B0BA0919C0B7F
:2030E000B0919D0B898B9A8BAB8BBC8B80919E0B90919F0BA091A00BB091A10B8D8B9E8BA2
:20310000AF8BB88F8091A20B9091A30BA091A40BB091A50B898F9A8FAB8FBC8FCE01419664
:203120000E94036F2596ECACFDAC0EAD1FAD259726EA3BE0AE01475E5F4FBE016B5E7F4FB9
:20314000CE0141960E94174C0E9469490E940B6F0C94F429ECEBF2E284918F010F5F1F4F6B
:20316000882321F00E94166FF801F6CFE3EEF1E084918F010F5F1F4F882311F40C94F4291E
:203180000E94166FF801F4CF80E50E94906E882329F00E94EE6D6B017C0103C0C12CD12CF0
:2031A000760183E50E94906E882361F00E942E6E20E030E04AE754E40E94A9CB0E940AD447
:2031C0006B017C010E942FB90E940B6F8091D1059091D205A091D305B091D405C80ED91E91
:2031E000EA1EFB1E0E94A77ADC01CB018C199D09AE09BF09B7FD02C00C94F42980E00E9443
:20320000AD35F0CF0E942FB9C0904E06CDA680E00E944041D090D507D9A2C090C805C9A6A6
:203220008C2D8E7F8093C80521E040E050E0BA0180E00E9438B90E940A4311E01093AB06B5
:2032400088E50E94616E282E89E50E94616E082F8AE50E94616E382E211004C0011104C013
:20326000182705C0011102C010E001C0182F0E945F49111105C0211003C0002309F40AC16E
:2032800080E090E0A0EAB0E48093A20B9093A30BA093A40BB093A50B9C01AD016091EF129D
:2032A0007091F0128091F1129091F2120E9444CB87FF0BC019821A821B821C82BE016F5FD1
:2032C0007F4F82EA9BE00E940C4411110EC0211003C00111D9C0DEC0011107C080E090E071
:2032E0000E942A9A1111D0C0F4CF1092EB121092EC121092ED121092EE121092E712109234
:20330000E8121092E9121092EA120E94A76DECE8F9E1D490D9AAE0E8F9E1C590D590E5905C
:20332000F490E4E8F9E185909590A590B490A5019401C701B6010E94E8D418162CF4A701A2
:203340009601C501B40104C0A5019401C701B6010E949DD36DA37EA38FA398A73FE3632E76
:2033600039E1732EF301659175918591949143E4442E49E1542EF2012591359145915491F8
:203380000E9444CB87FF02C0F30101C0F20145905590659074902DA13EA14FA158A5CA0174
:2033A000B9010E94A9CB20E030E040E85FE30E94C1D20E942ED59B01AC01C301B2010E9487
:2033C000A9CB6D8F7E8F8F8F98A3EDE8F9E124912DA320E030E040EC5FE3C501B4010E9448
:2033E000A9CB2B013C013DA1632F330F770B880B990B0E944ACB9B01AC01C301B2010E946C
:20340000A9CB69837A838B839C8320E030E040EC5FE3C701B6010E94A9CB6B017C0149A934
:20342000642F440F770B880B990B0E944ACB9B01AC01C701B6010E94A9CB698B7A8B8B8B49
:203440009C8B9E01235E3F4F4FEE52E1BE016F5F7F4FCE0141960E942A431092F9061092D4
:20346000EB121092EC121092ED121092EE121092E7121092E8121092E9121092EA121111D8
:203480002DCF21102BCF25CF81E090E00E942A9A111103C0332009F45FC08091AC06811131
:2034A00003C0EDE2F9E142C08091AD068823C9F30E94A76D8091EF129091F012A091F11254
:2034C000B091F2128093A20B9093A30BA093A40BB093A50B80E090E0A4E2B3E480939A0B9C
:2034E00090939B0BA0939C0BB0939D0B80E090E0A0EAB2E480939E0B90939F0BA093A00BE7
:20350000B093A10B19821A821B821C829E012F5F3F4F4FEE52E16EE97BE08AE99BE00E94DD
:203520002A4382E090E00E942A9A16C084918F010F5F1F4F882321F00E94166FF801F6CFEE
:20354000E9EFF1E084918F010F5F1F4F882321F00E94166FF801F6CF8091F908811104C038
:203560008091FA08882339F180E090E0A8E4B3E480939A0B90939B0BA0939C0BB0939D0B2A
:2035800080E090E0ACE5B3E480939E0B90939F0BA093A00BB093A10B19821A821B821C826B
:2035A0009E012F5F3F4F4FEE52E16EE97BE08AE99BE00E942A430E94A76D8091220C809329
:2035C000AB068DA50E9440410E94F04259A1523020F0852F0E94BE5B07C021E040E050E0FE
:2035E000BA0189A10E9438B9C9A4C092C8058AE092E00E944766882331F00E945FB08F3F51
:2036000011F00C94072A0E94C5840C94F4290E94EF440C94F42920E030E040E152E4609146
:20362000E7127091E8128091E9129091EA120E94C1D26B017C0188E50E94906E882321F086
:203640000E942E6E6B017C01C98ADA8AEB8AFC8A20E030E04CE852E46091EB127091EC122A
:203660008091ED129091EE120E94C1D26B017C0189E50E94906E882321F00E942E6E6B0187
:203680007C01C982DA82EB82FC8289889A88AB88BC882AEF3EEF4FE052E4C501B4010E94A9
:2036A000E8D487FF02C00C94F42921E230E048EC53E4C501B4010E9444CB181614F40C94C9
:2036C000F4292DE73FEF4BE852E4C701B6010E94E8D487FF02C00C94F42921E230E046E9FE
:2036E00053E4C701B6010E9444CB181614F40C94F4290C940C2A0E942FB98091FB0681116C
:203700000C94F4291092B7030C94F4290E942FB98091FB0681110C94F42981E08093B703BA
:203720000C94F42985E40E94906EB82E0E942FB99EE5C92E92E0D92E27EEE22E22E1F22E18
:2037400000E010E0D6018D916D010E94906E882351F00E942E6EF701608371838283938382
:20376000133009F001E01F5FF4E0EF0EF11C143049F7002319F00E94A76D45CFBB2009F47E
:2037800042CF2091D5133091D6134091D7135091D8136091F3127091F4128091F512909118
:2037A000F6120E94A9CB0E94F4D460939708709398088093990890939A080E942FB98FB703
:2037C000F89440919708509198086091990870919A084093EC135093ED136093EE1370938B
:2037E000EF138FBF10928708109288081092890810928A0808CF80915902882311F40C941C
:20380000F42989E40E94906E182F882321F00E94FE6DF62E01C0F12C8AE40E94906E082F27
:20382000882331F00E94FE6DE62E111104C00CC0E12C1123D1F084E0C82ECF1410F00C940A
:20384000162DE1E2F2E005C0B4E0DB2EDE14C8F30CC084918F010F5F1F4F882311F40C94E4
:20386000F4290E94166FF801F4CF0E945F491123F1F020913E0530913F054F2D4203B0017E
:20388000439F700D112480911E0C90911F0C680F791F072E000C880B990B0E944ACB6093DC
:2038A0009A0B70939B0B80939C0B90939D0B0023F1F020914005309141055E2D5203B001A3
:2038C000539F700D11242091200C3091210C620F731F072E000C880B990B0E944ACB609354
:2038E0009E0B70939F0B8093A00B9093A10B80E50E94616E8823A1F10E941F6E882381F186
:203900001123B1F020E030E040E152E460919A0B70919B0B80919C0B90919D0B0E94C0D279
:2039200060939A0B70939B0B80939C0B90939D0B0023B1F020E030E04CE852E460919E0BE9
:2039400070919F0B8091A00B9091A10B0E94C0D260939E0B70939F0B8093A00B9093A10B29
:2039600086E40E94906E8823D9F00E942E6E6B017C0120E030E0A9010E94E8D4181684F4E4
:2039800020E030E040E752E4C701B6010E949DD360934702709348028093490290934A02D3
:2039A0000E94BAA70C94F4298091390590913A058A3D910509F498C40CF0EFC08D369105DE
:2039C00009F45BC20CF072C08235910509F4ADC20CF041C08A32910509F4DFC10CF5823146
:2039E000910509F4ABC28F31910509F4D2C1419711F00C94F4299FB7F89480910B018D7F40
:203A000080930B019FBF89989FB7F894809108018E7F809308019FBF129815980C94F42971
:203A20008C34910509F4BDC14CF48B34910511F00C94F4290E9480910C94F4298D3491059B
:203A400009F4C9C18135910511F00C94F4290E9496860C94F4298836910509F4C0C19CF4F8
:203A60008435910509F46AC20CF463C28535910509F468C28C35910511F00C94F4290E947B
:203A800099850C94F4298A36910509F42BC20CF4C5C18B36910509F444C28C36910511F0D2
:203AA0000C94F429109205020C94F4298937910509F423C3C4F58337910509F45EC2ACF4E4
:203AC0008F36910509F4A2C10CF48DC18037910509F4A0C18237910511F00C94F4290E9483
:203AE0002FB90E94C5840C94F4298637910509F448C24CF48537910511F00C94F4290E94EA
:203B000063650C94F4298737910509F492C28837910511F00C94F42981E08093AB06809330
:203B2000220C0C94F429893C910509F4ECC2DCF48B39910509F476C14CF48C38910511F09B
:203B40000C94F4290E94A9860C94F4298E3B910509F4AFC1883C910511F00C94F4290E9494
:203B6000F9640C94F4298C3C910509F4D0C24CF48B3C910511F00C94F4290E94B2640C948B
:203B8000F4298D3C910509F4C6C2833D910511F00C94F429EDE2F9E12BC3873FA1E09A0791
:203BA00009F432C70CF074C08336E1E09E0709F49AC784F58C3221E0920709F4A9C4ACF487
:203BC0008D3D910509F4AEC334F48C3D910509F49AC30C94F429823E910509F4BFC38831EB
:203BE000914009F4EAC30C94F4298E3251E0950709F46FC50CF4CFC48F32B1E09B0709F44B
:203C0000BCC58033914011F00C94F4290E94CA630C94F429843AF1E09F0709F4B9C5ECF4C5
:203C2000813931E0930709F4ABC54CF48039914011F00C94F4290E942FB90C94F429823928
:203C4000A1E09A0709F4A0C58A39914011F00C94F4290E94655D0C94F429843FE1E09E0744
:203C600009F4CCC634F4853A914009F430C60C94F429853F31E0930709F4C3C6863F9140C2
:203C800011F00C94F42980E00E94CB940C94F4298A3757E1950711F40C944528F4F58337FE
:203CA000B7E19B0711F40C948526E4F4873EF3E09F0709F431C744F48335934011F00C940B
:203CC000F429EDE2F9E1AEC6813747E1940709F433C78237974111F00C94F4290E94F45BF8
:203CE0000C94F4298637A7E19A0711F40C94F6273CF48537974111F40C94B9260C94F4295A
:203D00008737F7E19F0711F40C940C288837974111F40C9424280C94F429883837E19307D7
:203D200011F40C94F028FCF4853857E1950711F40C94E4284CF48438974111F00C94F42902
:203D4000EBEDF4E00C94C5288638E7E19E0711F40C94EB288738974111F00C94F4290E9450
:203D6000E85B0C94F4298A3827E1920711F40C940A2914F40C94FE288B3847E1940711F4AF
:203D80000C941B298039974111F40C945E290C94F4290E94F7880C94F4290E94A3880C947A
:203DA000F4298091EB089091EC08019711F00C94F42982E090E09093EC088093EB080E94E6
:203DC000A77A6093F5087093F6088093F7089093F8080C94F4290E94A38F0C94F4290E94AC
:203DE00071880C94F4298EE40E94906E882311F40C94F4290E94FE6D6093A3127093A41220
:203E00008093A5129093A6120C94F4290E94C0860C94F42980E492E00E9498BA0E94558852
:203E20000C94452D83E50E94906E882311F40C94F4290E940E6E8093CE058D3318F08CE3C0
:203E40008093CE050E94A77A6B017C012091CE0530E0A8EEB3E00E94B1D2DC01CB018C0DAC
:203E60009D1DAE1DBF1D8093CA059093CB05A093CC05B093CD050C94F4298DE690E00E94B1
:203E8000836F81110C94F4298091920683FF02C00C94F42983E50E94906E882E81110C9447
:203EA000622A82E50E94906E81110C94622A0C94F4298091920683FF02C00C94F42980E7E3
:203EC00092E00E94B26683E50E94906E89A781110C948E2B82E50E94906E81110C948E2BA1
:203EE0000C94F42983E50E94906E882339F00E94FE6D8B016F3F710519F010F00FEF10E075
:203F000080E50E94906E811106C010938906009388060C94F4290E940E6E81110C94F429C7
:203F2000F4CF0E9437870C94F4291092B6030C94F42981E08093B6030C94F4290E94378640
:203F40000C94F42983E50E94616E882311F40C94F4290E942E6E20E030E04AE754E40E9405
:203F6000A9CB0E940AD46093D5057093D6058093D7059093D8050C94F4290E9482650C94CD
:203F8000F42985E40E94616E882381F00E941F6E882361F0EDE2F9E184918F010F5F1F4FB9
:203FA000882321F00E94166FF801F6CF81E40E94616E882381F00E941F6E882361F0EDE76F
:203FC000F2E084918F010F5F1F4F882321F00E94166FF801F6CF0091B1031091B203D80179
:203FE0008D918D01882301F10E94166FF8CF05E018E080E20E94166FD8016D917D918D9121
:204000009D918D0142E00E94BA728CE20E94166FF801648175818681978142E00E94BA727C
:20402000F8E00D301F0729F78AE00E94166F0C94F429E9E9F2E084918F010F5F1F4F882307
:2040400021F00E94166FF801F6CFE1E9F2E084918F010F5F1F4F882321F00E94166FF80171
:20406000F6CF309B03C002EA12E002C007EA12E0F80181918F01882319F00E94166FF8CF2D
:204080008AE00E94166FE9E8F2E084918F010F5F1F4F882321F00E94166FF801F6CF329BFD
:2040A00003C002EA12E002C007EA12E0D8018D918D01882319F00E94166FF8CF8AE00E9487
:2040C000166FE1E8F2E084918F010F5F1F4F882321F00E94166FF801F6CF349903C002EA22
:2040E00012E002C007EA12E0F80181918F01882309F49ACF0E94166FF7CF1092AB0610929B
:20410000220C0C94F4290E94D4640C94F4290E9449640C94F42983E50E94616E882351F04C
:204120000E942E6E6093840670938506809386069093870684E50E94616E882351F00E947F
:204140002E6E6093800670938106809382069093830682E40E94616E882351F00E94EE6DB9
:2041600060937C0670937D0680937E0690937F0688E50E94616E882351F00E942E6E60930A
:20418000500670935106809352069093530689E50E94616E882351F00E942E6E6093540632
:2041A0007093550680935606909357068AE50E94616E882351F00E942E6E60935806709354
:2041C000590680935A0690935B0685E40E94616E882311F40C94F4290E942E6E60935C06AF
:2041E00070935D0680935E0690935F060C94F42984918F010F5F1F4F882321F00E94166F39
:20420000F801F6CF83E50E94616E882321F00E941F6E80934602EBEDF2E084918F010F5F04
:204220001F4F882321F00E94166FF801F6CF80914602811103C0E7EDF2E002C0E3EDF2E0B7
:2042400084918F010F5F1F4F882321F00E94166FF801F6CFEBECF2E084918F010F5F1F4F12
:20426000882321F00E94166FF801F6CF40E050E0BA0189EC92E00E941EB340E050E0BA012D
:2042800086EC92E00E941EB340E050E0BA0183EC92E00E941EB3EBEBF2E084918F010F5FAD
:2042A0001F4F882321F00E94166FF801F6CF40E050E068EC73E489EB92E00E941EB340E07B
:2042C00050E066E973E486EB92E00E941EB340E050E066E973E483EB92E00E941EB38AE0FF
:2042E0000E94166F0C94F4298AED90E00E94836F81110C94F4291091B003112311F40C94E3
:20430000F4290C94CB2C83E50E94906E882311F40C94F4290E94FE6D70932C0260932B0216
:204320000C94F4298DED90E00E94836F81110C94F42983E50E94906E882311F40C94F4297E
:204340000091B00310E00E94FE6D000F111FF801E95EFD4F718360830C94F42980E50E94B6
:20436000616E882311F40C94F4290E94FE6DF62EC62ED72E83E50E94906E882321F00E9471
:20438000FE6D8B0102C00FEF1FEFC8010196039710F00C94F429D7FE02C00C94F429EBEF73
:2043A000F2E085E38E0F9491F91611F40C94F42931968E13F8CF0C941D2D80E50E94616E41
:2043C000882311F40C94F4290E94FE6D6B017C018B01672B09F07EC083E50E94616E8823A1
:2043E00039F00E94FE6D8AEC98E00E947DB1FCC7EDE2F9E184917F012FEFE21AF20A882307
:2044000021F00E94166FF701F5CF60E070E089E493E00E943BB38091CC0821E732E069013F
:20442000C81AD10887FDD394CC0CDD1CCC0CDD1C0D2C000CEE08FF088091CB082DE730E0EA
:204440004901881A910887FD9394880C991C880C991C092C000CAA08BB088091CA088F3F33
:20446000B9F090E0FC01EE0FFF1F8E0F9F1FFC01EB55F74F0181128133E0000F111F3A95F7
:20448000E1F744E0169507954A95E1F70E5F1F4F98012F5F3F4FC901330FAA0BBB0B9C016E
:2044A000AD01281939094A095B09A4EBB0E00E94A1D2A7019601281939094A095B090E94C5
:2044C00085D2B90186E493E00E943BB38AE00E94166F8AC7ECEBF2E284918F010F5F1F4F50
:2044E000882321F00E94166FF801F6CFB6018FE393E00E943BB3E0E3F3E084918F010F5F46
:204500001F4F882309F470C70E94166FF801F5CF83E50E94906E882321F00E94FE6D8B010D
:2045200002C004E011E080E50E94906E882359F00E94FE6D7B016938734148F0B8E8EB2E1C
:20454000B3E1FB2E04C088EEE82E83E0F82E9091D9082091DA08921307C08DEC98E00E9431
:204560007E6C0E941C80F3CF8091D80844E0849FF0011124EF52F74FF386E2861587048764
:204580009F5F9093D9088F5F8093D80882132CC71092D80829C785E40E94906E811110C0D3
:2045A00080E50E94616E882391F00E942E6E6093F4137093F5138093F6139093F71307C0A6
:2045C0000E940E6E823060F3ECEBF2E271C089E40E94616E882381F00E942E6E2CEA35EC6D
:2045E00047E25EE30E94A9CB6093F0137093F1138093F2139093F31384E40E94616E882379
:2046000081F00E942E6E2CEA35EC47E25EE30E949DD36093F8137093F9138093FA139093E8
:20462000FB13EDE2F9E184918F010F5F1F4F882321F00E94166FF801F6CF4091F4135091E8
:20464000F5136091F6137091F71389E593E00E941EB32CEA35EC47E25EE36091F013709163
:20466000F1138091F2139091F3130E949DD3AB01BC0185E593E00E9401B32CEA35EC47E2EB
:204680005EE36091F8137091F9138091FA139091FB130E94A9CBAB01BC0181E593E00E9489
:2046A00001B38AE00E94166F9FC60E94166FF80184918F010F5F1F4F8111F7CF0DEB12E06D
:2046C000D8018D918D01882309F4AECC0E94166FF7CF83E50E94616E182F882371F00E9478
:2046E0002E6E0E9405D4709316026093150221E0672B09F020E020934F0680E50E94616E14
:20470000882359F02091150230911602232B11F00E941F6E80934F0667C6111165C6EDE2D5
:20472000F9E184918F010F5F1F4F882321F00E94166FF801F6CF80914F06811103C061EB76
:2047400072E002C064EA72E082E793E00E9454B3609115027091160281E693E00E943BB395
:20476000EDE5F3E084918F010F5F1F4F882309F43BC60E94166FF801F5CF0E94385F34C653
:2047800081E00E94634430C680E00E9463442CC686E50E94616E882341F080913E059091B1
:2047A0003F05892B11F00E9450BC83E50E94616E182F882319F00E941F6E182F83E50E94FE
:2047C000616E882319F0812F0E9440418AE50E94616E882321F00E942E6E0E94F840F0904F
:2047E0004E06111103C0EDE2F9E11AC0F110FBCFECEBF2E284918F010F5F1F4F882321F04A
:204800000E94166FF801F6CFE5EAF3E084918F010F5F1F4F882339F30E94166FF801F6CFD4
:2048200084918F010F5F1F4F882321F00E94166FF801F6CFF11003C069EB72E002C065EBDA
:2048400072E087E993E00E9454B38AE00E94166FEDE2F9E184918F010F5F1F4F882321F003
:204860000E94166FF801F6CFEAE8F3E084918F010F5F1F4F882321F00E94166FF801F6CF8C
:20488000C0904A06D0904B06E0904C06F0904D0620E030E0A901C701B6010E94E8D418166D
:2048A0006CF0E5E8F3E084918F010F5F1F4F882309F49AC50E94166FF801F5CF42E0C701A6
:2048C000B6010E94BA728AE00E94166F8DC589E40E94906E882321F00E94FE6D162F01C094
:2048E0001FEF8AE40E94906E882321F00E94FE6D062F01C00FEF8AE50E94616EF82E811147
:2049000005C081E50E94616ED82E01C0D12C17FD02C007FF03C0ECEBF2E205C0F1101AC04D
:20492000D11018C0F8CF84918F010F5F1F4F882321F00E94166FF801F6CFE3EEF3E084911C
:204940008F010F5F1F4F882309F44EC50E94166FF801F5CF153018F0ECEBF2E206C0053059
:20496000D8F716C00E94166FF80184918F010F5F1F4F8111F7CFE4ECF3E084918F010F5FE3
:204980001F4F882309F430C50E94166FF801F5CFE12E110FFF08002E000C110B0E942E6E5E
:2049A000DD2099F025E02E9DF0012F9DF00D1124E00FF11FEE0FFF1FEE0FFF1FE654F44F00
:2049C000208131814281538103C020E030E0A901A5E0AE9DF001AF9DF00D11240E0F1F1FD6
:2049E000000F111F000F111F0654144F0E94C1D2F8016083718382839383F6C40E947C92F2
:204A0000F3C40E944D96F0C483E50E94616E882319F00E941F6E01C081E091E089270E9405
:204A2000C289E2C484918F010F5F1F4F882321F00E94166FF801F6CFEDE1F4E084918F011C
:204A40000F5F1F4F882321F00E94166FF801F6CF8AE50E94616E8823C9F10E942E6E6B01EA
:204A60007C0120E030E040EA51EC0E94E8D487FD20C020E030E040EA51E4C701B6010E94F0
:204A800044CB1816B4F0C0923108D0923208E0923308F09234080E94109160913108709135
:204AA0003208809133089091340842E00E94BA72BBCAE6E0F4E084918F010F5F1F4F8823D8
:204AC00009F4B2CA0E94166FF801F5CF4091310850913208609133087091340883E094E014
:204AE0000E941EB3A1CAECEBF2E284918F010F5F1F4F882321F00E94166FF801F6CFE7E242
:204B0000F4E084918F010F5F1F4F882309F46CC40E94166FF801F5CF81E08093590283E54D
:204B20000E94616E811103C00E940DAB5DC40E941F6E811159C4F8CF8091FA08882309F4D4
:204B400053C48091AC06882309F44EC48091AD06882309F449C48091AE06882309F444C4D3
:204B600080E1EFEAF5E0A7EEB2E101900D928A95E1F70E94A76D0E945F498090B60B9090E6
:204B8000B70BA090B80BB090B90BC090D513D090D613E090D713F090D8132091F31230919F
:204BA000F4124091F5125091F612C501B4010E94C0D2A70196010E94A9CB0E9405D48B0123
:204BC00020E030E040EC50E4C701B6010E94A9CB0E9405D40617170709F46EC0C090B20BE2
:204BE000D090B30BE090B40BF090B50BA70196016091EF127091F0128091F1129091F212BB
:204C00000E9444CB811126C020E030E040E050E4C501B4010E94C0D26093A60B7093A70BFF
:204C20008093A80B9093A90B20E030E040E85FE3C701B6010E94C1D26093A20B7093A30B58
:204C40008093A40B9093A50B60E070E088E492E40E94734920E030E040EC50E46091B60BCD
:204C60007091B70B8091B80B9091B90B0E94C0D26093A60B7093A70B8093A80B9093A90B8E
:204C800020E030E040E251E46091B20B7091B30B8091B40B9091B50B0E94C1D26093A20BBA
:204CA0007093A30B8093A40B9093A50B60E070E088E492E40E9473498091AC06882361F01F
:204CC00080E090E0A8E4B3E480939A0B90939B0BA0939C0BB0939D0B8091AD06882361F0DB
:204CE00080E090E0ACE5B3E480939E0B90939F0BA093A00BB093A10B60E070E08CE892E4EC
:204D00000E9473490E9469496FC30E945F4920E030E040E252E46091A60B7091A70B809197
:204D2000A80B9091A90B0E94C0D26093A60B7093A70B8093A80B9093A90B60E070E088E4C5
:204D400092E40E9473490E942FB90E9469490E941FA785E00E9441A581E08093380580918A
:204D6000C905882309F440C386E394E00E9480B03BC30E945F4981E08093AE0620E030E08B
:204D800040E251E46091A20B7091A30B8091A40B9091A50B0E9444CB87FF12C080E090E005
:204DA000A0E2B1E48093A20B9093A30BA093A40BB093A50B60E070E088E492E40E947349A6
:204DC00020E030E040E451E46091A60B7091A70B8091A80B9091A90B0E94C1D26093A60BA3
:204DE0007093A70B8093A80B9093A90B60E070E080E89FE30E947349C090B60BD090B70B56
:204E0000E090B80BF090B90B20E030E0A901C701B6010E9444CB87FF1AC0A70196016091A1
:204E2000A60B7091A70B8091A80B9091A90B0E94C1D26093A60B7093A70B8093A80B9093FE
:204E4000A90B60E070E088E492E40E9473498091B60B9091B70BA091B80BB091B90B80930D
:204E6000A60B9093A70BA093A80BB093A90B0E9469490E94A76D20E030E040EC50E4609164
:204E8000A60B7091A70B8091A80B9091A90B0E94C0D26093A60B7093A70B8093A80B90939F
:204EA000A90B60E070E088E492E40E9473498091AA0B9091AB0BA091AC0BB091AD0B8093DD
:204EC0009A0B90939B0BA0939C0BB0939D0B8091AE0B9091AF0BA091B00BB091B10B8093FE
:204EE0009E0B90939F0BA093A00BB093A10B20E030E040E050E46091B20B7091B30B80918D
:204F0000B40B9091B50B0E94C1D26093A20B7093A30B8093A40B9093A50B60E070E08CE8D2
:204F200092E40E9473492DEC3CEC4CEC5DE36091B20B7091B30B8091B40B9091B50B0E9424
:204F4000C1D26093A20B7093A30B8093A40B9093A50B20E030E040E85FE36091B60B7091AB
:204F6000B70B8091B80B9091B90B0E94C0D26093A60B7093A70B8093A80B9093A90B60E04C
:204F800070E088E492E40E9473498091B20B9091B30BA091B40BB091B50B8093A20B909300
:204FA000A30BA093A40BB093A50B8091B60B9091B70BA091B80BB091B90B8093A60B9093D9
:204FC000A70BA093A80BB093A90B60E070E080E89FE30E9473490E9469490E94A76D1092BE
:204FE000C2058091C3050E944041FEC180913D058111FAC181E080933D05E9E3F4E0849124
:205000008F010F5F1F4F882321F00E94166FF801F6CF0E941667E8C180913D05882309F4C0
:20502000E3C110923D05E2E6F4E084918F010F5F1F4F882321F00E94166FF801F6CF82E5C3
:2050400094E00E94B266D0C183E50E94616E882359F00E94EE6D6093E0077093E1078093EF
:20506000E2079093E30708C01092E0071092E1071092E2071092E30744E050E060EB72E057
:2050800080EE97E00E9433D2AFC1C0902D08D0902E08E0902F08F090300820E030E0A901E0
:2050A000C701B6010E9444CB81111EC0ECEAF4E084918F010F5F1F4F882321F00E94166F42
:2050C000F801F6CF4091EF125091F0126091F1127091F2128AE794E00E941EB38AE00E9400
:2050E000166F0E94C58480C18091AE06882309F443C06091EF127091F0128091F112909165
:20510000F212698B7A8B8B8B9C8BA70196010E94C0D26093EF127093F0128093F1129093B0
:20512000F2120E94A76D4091EF125091F0126091F1127091F2128DE994E00E941EB38AE040
:205140000E94166F0E94C58419821A821B821C82BE016F5F7F4FCE0141960E940C44498906
:205160005A896B897C898CE894E00E941EB38AE00E94166F0E94C58410922D0810922E08CD
:2051800010922F08109230082FC184918F010F5F1F4F882321F00E94166FF801F6CF8CE9D5
:2051A00099E00E947C7389EE99E90E948B75ECECF4E084918F010F5F1F4F882309F414C1A0
:2051C0000E94166FF801F5CF1092F9081092FC080E94EC7609C11092F9081092FC0804C1C6
:2051E0008091FC08882329F081E08093F9081092FA080E9480910E942467F6C08091F90815
:20520000882329F01092F90881E08093FA080E942467EAC08091FB0890E0880F991F209156
:20522000FC08822B039709F0DFC083E50E94616E8111EFC3D9C08091FC08882391F1EEEEB7
:20524000F4E084918F010F5F1F4F882321F00E94166FF801F6CF6091940B7091950B809116
:20526000960B9091970B4AE00E941D6FECEEF4E084918F010F5F1F4F882321F00E94166F60
:20528000F801F6CF6091900B7091910B8091920B9091930B4AE00E941D6F8AE00E94166FD1
:2052A000A3C0E6E0F5E084918F010F5F1F4F882309F49AC00E94166FF801F5CF8091F90877
:2052C00081110E942FB9E090B103F090B20380E50E94616E182F8091FC082091FB0830E063
:2052E000220F331F282B2330310509F090CF61E06127882319F0C7010E9417AD83E50E9442
:20530000616E882361F00E94FE6D6093940B7093950B8093960B9093970B0E945C91809167
:20532000FC08882329F081E08093F9081092FA0811116DCF0E9480916ACF10913905F12E44
:205340008091D507181751F083E50E94616E082F882329F00E941F6E082F01C001E086E4AA
:205360000E94906E882319F00E942E6E03C060E070E0CB01F1E0FF1520F4812F0E94BE5B18
:205380000CC020E030E040E752E40E949DD3AB01BC01202F812F0E9438B921E030E0C901EC
:2053A00001C0880F1A95EAF79091C805892B8093C8051AC0EDE2F9E184918F010F5F1F4F7F
:2053C000882321F00E94166FF801F6CF6091CF057091D0058DE195E00E9454B382E20E94FF
:2053E000166F8AE00E94166F0E94EEAA4EC3E091B103F091B203EF2B31F4FC013197F0936A
:20540000B203E093B103A0E0B0E00C9409138FEF0E9469B00C94031B80E00E9440410E94C8
:205420000A4383E50E94616E882309F449C00E941F6E21E0482FBE016F5F7F4FCE014196ED
:205440000E9437AB6B017C019B01AC010E9470D5811131C02CEA35EC47E257E369897A899D
:205460008B899C890E94C1D2AB01BC0189E192E00E9401B32CEA35EC47E257E369817A81A4
:205480008B819C810E94C1D2AB01BC0184E192E00E9401B32CEA35EC47E257E3C701B601FF
:2054A0000E94C1D2AB01BC018FE092E00E9401B38AE00E94166F0E94F0420E94C58494CF64
:2054C00081E0B7CF0E942E6E2091B00330E0220F331F89010A55184F0E9405D4D8016D930C
:2054E0007C930E942E6E20E030E040EA52E40E9444CB18161CF00E94A38F02C00E948091BB
:20550000E091B0030E2F10E0F801EE0FFF1FEA55F84F60817181072E000C880B990B0E94B3
:205520004ACBF801EE0FFF1FEE0FFF1FE756F84F20813181428153810E94E8D4181624F415
:2055400087E592E00E94B2660E947CB381E08093050219A21AA21BA21CA21DA21EA21FA235
:2055600018A6D12C19A68CE38DA79CE199ABA6E4ADABE12CF12C00E81FEB6090B003712C0F
:20558000F301EE0FFF1FEA55F84F60817181072E000C880B990B0E944ACBC62EB72EA82EC5
:2055A000992E262F372F482F592FB701C8010E9444CB882319F1F301EE0FFF1FEE0FFF1F59
:2055C000E756F84F20813181428153816C2D7B2D8A2D992D0E9444CBD82EDD1CDD24DD1CF5
:2055E000882081F0DD2071F080910502882309F4FBCE89E492E00E94B266F6CECE2CBF2C69
:20560000A02E912E0E94A77A2B013C01DC01CB012DA13EA14FA158A5821B930BA40BB50BE4
:20562000B7FD0FC0D301C20188519C4FAF4FBF4F8DA39EA3AFA3B8A70E9446878AE00E94E3
:20564000166F80E00E94AD350E940B6F2090B003312CF101EE0FFF1FEE0FFF1FE756F84F59
:20566000E080F18002811381DD2079F129A13AA14BA15CA1211531054105510541F0D30140
:20568000C201821B930BA40BB50BB7FD1EC09701A80169A57DA589A99DA90E94C0D220E0EE
:2056A00030E040EC5FE30E9444CB87FD9DCFD301C201805A9541AF4FBF4F89A39AA3ABA3C1
:2056C000BCA3E9A6FDA609AB1DAB80910502882309F48ACFC101880F991FFC01EA55F84F10
:2056E00060817181072E000C880B990BDD2069F00E944ACB9701A8010E9444CB87FF74CF97
:20570000EC2CFB2C0A2D192D38CF0E944ACB9701A8010E94E8D418169CF366CF0E942E6E40
:205720000E9405D4683D710514F067ED70E07093A5076093A4070E942E6E20E030E040E868
:205740005FE30E94E8D4181614F40E94809181E0809305028091D5078093B0031DA21EA213
:205760001FA218A61DA61EA61FA618AA19A219AA9CE39DABACE1A9AFB6E4BDAFC12CD12C82
:20578000A0E8EA2EBFEBFB2E812C912C54016091A4077091A507072E000C880B990B0E9474
:2057A0004ACB162F072F782E692E262F372F482F592FB601C7010E9444CB882309F12091DC
:2057C0009507309196074091970750919807612F702F872D962D0E9444CB881F8827881F8C
:2057E00089A3C9A4CC2081F0882371F080910502882309F4F9CD82E692E00E94B266F4CDCC
:205800001C2D0D2D7E2C6F2C0E94A77A6B017C01DC01CB012DA53EA54FA558A9821B930B86
:20582000A40BB50BB7FD3BC0D701C60188519C4FAF4FBF4F8DA79EA7AFA7B8AB0E9446873A
:20584000ECE6F2E084912F019FEF491A590A882321F00E94166FF201F5CF81149104A104A2
:20586000B104B9F0D501C401805F984DAF4FBF4FBC01CD016C197D098E099F0928EE33E061
:2058800040E050E00E9463D2CA01B9010E94BF6F03C08FE30E94166F8AE00E94166F80E03F
:2058A0000E94AD350E940B6F209095073090960740909707509098079101A201612F702F4E
:2058C000872D962D0E94C0D29F7781149104A104B10449F420E030E040E85FE30E9444CB1B
:2058E00087FF0BC008C020E030E040E450E40E94E8D4181614F446015701A9A1AA2379F173
:205900002DA13EA14FA158A5211531054105510541F0D701C601821B930BA40BB50BB7FDB7
:205920001EC09101A20169A97DA989AD9DAD0E94C0D220E030E040EC5FE30E9444CB87FDB5
:2059400055CFD701C601805A9541AF4FBF4F8DA39EA3AFA3B8A729AA3DAA49AE5DAE8091D9
:205960000502882309F442CF81149104A104B10429F4C12ED02EE72CF62C09CF90E1C91A78
:2059800097E2D90AE108F108C818D908EA08FB08F7FE2CCFEECF88E50E94906E882361F05D
:2059A0000E942E6E24E0129FF0011124EB5FF74F608371838283938389E50E94906E882393
:2059C00081F00091B00310E00E942E6E000F111F000F111FF801E35FF74F60837183828309
:2059E00093830DE219E1F8018491882329F00F5F1F4F0E94166FF7CF0BEE12E0F801849114
:205A0000882311F40C94F71F0F5F1F4F0E94166FF5CF0E94FE6D6093940B7093950B809304
:205A2000960B9093970B0E945C91DECC01110C94241C0E945F490C94391C0E942FB960E0CC
:205A40008F2D0E946B790F3FBFEF1B0759F48F2D0E94EC6B31E020E0892B09F030E0032FE4
:205A6000122F05C00130110569F000E010E08F2D0E94EC6B8017910709F4B6CC80E00E944B
:205A8000AD35F5CF01E010E0F2CFC85ADF4F0FB6F894DEBF0FBECDBFDF91CF911F910F9117
:205AA000FF90EF90DF90CF90BF90AF909F908F907F906F905F904F903F902F9008954F9246
:205AC0005F926F927F928F929F92AF92BF92CF92DF92EF92FF920F931F93CF93DF93CDB74F
:205AE000DEB7C854D2400FB6F894DEBF0FBECDBFCDB6DEB69E012F5F3F4F7901C9010E94E4
:205B0000E3AE8C81823009F048C65E0131E6A30EB11CC5010E94E3AEF501048110E0102F97
:205B20000027C7010E94E3AE8E81082BC7010E94E3AE6A817B8180EB96E00E94FA5A88239D
:205B400009F47BC40115110509F4EAC745E050E065EE75E0C5010E94CBCA45E050E060EE92
:205B600075E0C7010E94CBCAF70101900020E9F7CF0105978E159F0571F5C5010E9431AFE7
:205B8000882349F18091750890917608029709F582E880933808B50189E398E00E947DAF37
:205BA0000297B9F4B7018BE398E00E947DAF20917508309176088F3FFFEF9F0711F00496C9
:205BC00002C080E090E0820F931F90937608809375080E9401AF063127E0120709F4ECC16C
:205BE00008F0C3C0053047E0140709F46DC108F060C0063B110509F4D4C3E8F4033B110555
:205C000009F49FC278F4013B110509F436C2023B110509F085C78FEF8093020280E00E9444
:205C20005A677EC7043B110509F492C2053B110509F4A5C375C7023097E0190709F435C105
:205C400060F40115F7E01F0709F42CC10130174009F066C70E94246763C7033037E013078A
:205C600009F42FC10430174009F05AC744E050E060EB72E080EE97E00E9433D20E94655DB1
:205C80000E94AC900E94A38F0E94667E1092890610928806109205028091C3050E944041C6
:205CA0000E9422A78EEB95E00E94B2660E94246737C70B3087E0180709F44EC130F508307C
:205CC000E7E01E0709F439C168F4063027E0120709F42AC10730174009F022C780E00E94D5
:205CE0005A671EC7093047E0140709F42BC10A30174009F015C720E040E050E060EA70E446
:205D000082E090E00E9452C40BC7023197E0190709F439C1B0F40031F7E01F0709F426C1B0
:205D20000131174009F0FCC68CEA95E090932C0880932B080E944B6D8FE995E00E9480B07E
:205D4000EFC6043137E0130709F42AC108F02EC182EA95E090932C0880932B080E944B6D81
:205D60008FE995E00E9480B0DBC6013487E0180709F463C108F051C00232E7E01E0709F4C1
:205D800031C110F5093127E0120709F421C178F4073147E0140709F415C10831174009F091
:205DA000BFC660E081E090E00E948CC5B9C6003297E0190709F412C10132174009F0B0C649
:205DC00080E00E9482BEACC60233F7E01F0709F4F3C2A0F4003337E0130709F424C101331D
:205DE000174009F09DC689E995E00E9480B080E00E94CB948FEF0E9469B092C6043387E0A7
:205E0000180709F4D4C208F4DCC20034174009F087C681E00E945A6783C6023AF7E01F071F
:205E200009F417C1E8F40F3637E0130709F4CCC250F4023487E0180709F403C10036174062
:205E400009F4DAC26DC6003AE7E01E0709F4FDC0013A174009F064C681E00E9428BD60C6D3
:205E6000053A27E0120709F4FCC068F4033A47E0140709F4F2C0043A174009F051C684E077
:205E80000E9428BD4DC6073A97E0190709F4F1C008F4EBC0083A174009F042C688E00E9497
:205EA00028BD3EC60E9416673BC60E94DE5E882309F436C683ED95E00E94B2660E9424678B
:205EC0002FC60E94E3BC2CC68091DC079091DD071816190624F49093A7078093A60780919A
:205EE000DA079091DB07883D910514F087ED90E09093A5078093A4078091D8079091D907FD
:205F00008C34910514F08BE490E09093A3078093A2078091D6079091D7079093890680930D
:205F200088060E941667FCC50E94667E10928906109288060E941667F3C589EB95E00E94AA
:205F40000B66EEC50E945FB08F3F09F0E9C58091C2058111E5C5D7C521E040E050E060EAAC
:205F600070E482E090E00E9452C4DAC582EB95E090932C0880932B080E944B6D8FE995E0DE
:205F80000E9480B0CDC586EA95E090932C0880932B080E944B6D8FE995E00E9480B0C0C57D
:205FA00061E080E090E00E948CC5BAC561E081E090E00E948CC5B4C561E082E090E00E942B
:205FC0008CC5AEC560E080E090E00E948CC5A8C560E082E090E00E948CC5A2C581E00E941E
:205FE00082BE9EC58091C405833099F018F48130A8F00AC0853069F038F0863079F482E00E
:2060000090E00E94B2BD8CC580E090E00E94B2BD87C581E090E00E94B2BD82C580E090E088
:206020000E94B2BD7DC58CE995E00E9480B00E947C928FEF0E9469B073C582E00E945A676B
:206040006FC583E00E945A676BC580E00E9428BD67C582E00E9428BD63C583E00E9428BD08
:206060005FC585E00E9428BD5BC586E00E9428BD57C587E00E9428BD53C58091C0059091EA
:20608000C105019720910202821B910920910302309104022150304E53E0220F331F5A95A5
:2060A000E1F7821B930B0E949373ADB6BEB6E1E0F9E0DF010D900020E9F7CD018B5F9840A7
:2060C0002DB73EB7281B390B0FB6F8943EBF0FBE2DBF0DB71EB70F5F1F4FFF93EF9380E967
:2060E00095E09F938F931F930F930E94F4CA780136E0E30EF11C0F900F900F900F900F907B
:206100000F90F7018081882349F0082E000C990B0E94CAD5F70181937F01F3CFC8010E9423
:20612000EF8D8AE895E090932C0880932B080E944B6D0FB6F894BEBE0FBEADBE0E942467D3
:20614000EFC410928906109288060E942467E8C48091BF05882309F4E3C41092BF0541E0A7
:2061600050E06DEC72E08FEB95E00E9433D211E01093C20580E1EFEAF5E0A7EEB2E101908B
:206180000D928A95E1F70E94A76D1093AE068DB69EB6E4E8F5E0DF010D900020E9F7CD01D9
:2061A000815795402DB73EB7281B390B0FB6F8943EBF0FBE2DBF0DB71EB70F5F1F4FFF93C4
:2061C000EF938091F7118F938091F6118F938091F5118F938091F4118F938CE595E09F933F
:2061E0008F931F930F930E94F4CA380137E0630E711C8DB79EB70A960FB6F8949EBF0FBEC7
:206200008DBFF3018081882349F0082E000C990B0E94CAD5F30181933F01F3CFC8010E94BD
:20622000EF8D0FB6F8949EBE0FBE8DBE82E895E090932C0880932B080E944B6D84E1F501EC
:2062400011928A95E9F780E6F70111928A95E9F744E7842E45E0942EE6EAF7E0D40180E0FC
:206260002D913D912115310521F0823010F4318320838F5F3296853099F780917E05909158
:206280007F05009749F0883D910514F087ED90E09093A5078093A40700E010E03EE4632E57
:2062A00035E0732EF401819191914F010097D1F002301105B8F49F938F931F930F937F92AA
:2062C0006F92BF92AF920E94F4CAB501C7010E94F0D52DB73EB7285F3F4F0FB6F8943EBFAA
:2062E0000FBE2DBF0F5F1F4F05301105D9F68091800590918105009721F090938906809345
:20630000880620E030E040E752E46091F8117091F9118091FA119091FB110E94A9CB0E947C
:2063200005D47F936F93809183058F93809182058F9385E495E09F938F93BF92AF920E9495
:20634000F4CAB501C7010E94F0D541E350E0B70182E495E00E9424D60E94F56C8BE695E02E
:2063600090932C0880932B080E944B6D8DB79EB708960FB6F8949EBF0FBE8DBFD1C30E94F2
:2063800024678091BF05882309F4CAC31092BF0541E050E06DEC72E08FEB95E00E9433D270
:2063A000BFC38FEF0E9469B00E94E3BCB9C380E495E00E940B66B4C38BE395E00E940B660C
:2063C000AFC30E94E066ACC380913E0590913F05892B09F4A5C390914E0681E089270E94FA
:2063E000404141E050E06CE371E08EE496E00E9433D20E94E06694C38091F908811190C366
:206400008091FA0881118CC30E94FA6E811188C380913D05811184C310923C0583E395E0B7
:2064200090932C0880932B080E944B6D0E94E06680E395E00E9480B073C3C7010E94E3AEA2
:206440006A817B818BEA96E00E94FA5A882319F00093C70565C3C7010E94E3AE6A817B8157
:2064600086EA96E00E94FA5A882329F01093C6050093C50555C3C7010E94E3AE6A817B81B7
:2064800081EA96E00E94FA5A882319F00093C40547C3C7010E94E3AE6A817B818CE996E03E
:2064A0000E94FA5A882329F01093A7070093A60737C3C7010E94E3AE6A817B8187E996E0CF
:2064C0000E94FA5A882329F01093A9070093A80727C3C7010E94E3AE6A817B8182E996E0C0
:2064E0000E94FA5A882359F0B8016C34710514F06BE470E07093A3076093A20711C3C7015B
:206500000E94E3AE6A817B818DE896E00E94FA5A882359F0B801683D710514F067ED70E010
:206520007093A5076093A407FBC2C7010E94E3AE6A817B8188E896E00E94FA5A882329F0CF
:2065400010932C0200932B02EBC2C7010E94E3AE6A817B8183E896E00E94FA5A882391F018
:20656000B80180E090E00E9448CB23E333E343E250E40E94A9CB0E9405D470938906609352
:206580008806CEC2C7010E94E3AE6A817B818EE796E00E94FA5A882351F0E091D507F0E011
:2065A000EE0FFF1FE95EFD4F11830083B9C2C7010E94E3AE6A817B8189E796E00E94FA5ADD
:2065C000882391F0B80180E090E00E9448CB23E333E343E250E40E94A9CB0E9405D4709348
:2065E000D7076093D6079CC2C7010E94E3AE6A817B8184E796E00E94FA5A882329F010936F
:20660000DD070093DC078CC2C7010E94E3AE6A817B818FE696E00E94FA5A882329F01093A8
:20662000DF070093DE077CC2C7010E94E3AE6A817B818AE696E00E94FA5A882329F0109399
:20664000DB070093DA076CC2C7010E94E3AE6A817B8185E696E00E94FA5A882329F0109396
:20666000D9070093D8075CC2C7010E94E3AE6A817B8180E696E00E94FA5A882391F0B80111
:2066800080E090E00E9448CB23E333E343E250E40E94A9CB0E9405D47093580260935702C6
:2066A0003FC2C7010E94E3AE6A817B818BE596E00E94FA5A882391F0B80180E090E00E94C4
:2066C00048CB23E333E343E250E40E94A9CB0E9405D470932E0260932D0222C2C7010E94FE
:2066E000E3AE6A817B8186E596E00E94FA5A882301F1B801110F880B990B0E944ACB9058FF
:2067000020E030E048EC52E40E949DD3609331087093320880933308909334080E94109194
:2067200044E050E064E171E081E398E00E9433D2F7C1C7010E94E3AE6A817B8181E596E076
:206740000E94FA5A8823D9F080914E06882309F4E7C1B80180E090E00E9448CB20E030E0CC
:2067600040E251E40E949DD30E94F84044E050E060E171E08AE496E00E9433D2D1C1C7010B
:206780000E94E3AE6A817B8180E090E040E10E941D6F8AE00E94166FC3C1C7010E94E3AEB0
:2067A0008C81843009F0C2C0CE0185529F4F0E94E3AEC152DF4F8880CF5DD040912CA12CC7
:2067C000B12CB82CAA2499248824CE0182569F4F0E94E3AECD55DF4F8881C35AD040A82AA1
:2067E000CE018F599F4F0E94E3AEA8964FACA897512C612C712C762C652C542C4424C701BF
:206800000E94E3AE8885882A84289528A628B728C7010E94E3AE6A817B818CE496E00E9406
:20682000FA5A8823A9F0C501B4010E9448CB20E030E44CE156E40E949DD36093C913709331
:20684000CA138093CB139093CC130E94D8B468C1C7010E94E3AE6A817B8187E496E00E94AC
:20686000FA5A8823A9F0C501B4010E9448CB20E030E44CE156E40E949DD36093CD137093ED
:20688000CE138093CF139093D0130E94D8B448C1C7010E94E3AE6A817B8182E496E00E9485
:2068A000FA5A8823A9F0C501B4010E9448CB20E030E44CE156E40E949DD36093D1137093A9
:2068C000D2138093D3139093D4130E94D8B428C1C7010E94E3AE6A817B818DE396E00E944F
:2068E000FA5A8823A9F0C501B4010E9448CB20E030E44CE156E40E949DD36093D513709365
:20690000D6138093D7139093D8130E94D8B408C1C7010E94E3AE6A817B8180E090E040E1B9
:206920000E941D6F8AE00E94166FFAC0C7010E94E3AE8C81803209F0C3C0CE01845F9D4F0A
