:100000000C94AD110C94DE110C94DE110C94DE11E5
:100010000C94DE110C94DE110C94DE110C94DE11A4
:100020000C94DE110C94DE110C94DE110C94DE1194
:100030000C94DE110C94DE110C94DE110C94DE1184
:100040000C94DE110C94E6490C94DE110C94DE1134
:100050000C94DE110C94DE110C94D6710C948D70FE
:100060000C94DE110C9460450C94DE110C94DE119E
:100070000C94DE110C94DE110C94DE110C94DE1144
:100080000C94DE110C94DE110C94DE110C94DE1134
:100090000C94DE110C94DE110C94DE110C94DE1124
:1000A0000C94DE110C94DE110C94DE110C94DE1114
:1000B0000C94DE110C94DE110C94DE110C942D5274
:1000C0000C94DE110C94DE110C94DE110C94DE11F4
:1000D0000C94DE110C94DE110C9401A30C94DE112F
:1000E0000C94DE11DC6EDF6ECE6ED26ED86E166FA3
:1000F000E36EE76EED6EF16EF56EFB6EFF6E036FF5
:10010000166F096F0D6F116FA96FAE6FB36FBD6F73
:10011000C76F4070D16FD96FE16FEB6FF56FFF6FF5
:100120000E701870407022702C7036709272977238
:10013000C172C672A672B272D572DA727C723DC397
:1001400040C343C346C349C34CC34FC352C355C343
:100150004E414E494E495459494E46CDCCCC3D0AAC
:10016000D7233C17B7D13877CC2B329595E6241F8F
:10017000B14F0A000020410000C84200401C462048
:10018000BCBE4CCA1B0E5AAEC59D746364696E6FCB
:1001900070737578585B00434F4D4D554E49434140
:1001A00054494F4E0044525952554E004552524FF9
:1001B000525300494E464F004543484F004732389E
:1001C000205A20466F7262696464656E0A0030309E
:1001D00033420052756E6E696E6720696E2044521C
:1001E000592D52554E206D6F64650A0047323920F3
:1001F0004175746F20426564204C6576656C696E4C
:10020000670A0028422961636B00284629726F6ED5
:1002100074002852296967687400284C296566743F
:10022000003F2856296572626F7365206C6576659C
:100230006C20697320696D706C61757369626C659F
:100240002028302D34292E0A00426164205A20765D
:10025000616C75650A004E6F2062696C696E65613C
:100260007220677269640A00205A3A200020593AC5
:10027000200042656420583A20004D657368207064
:100280006F696E742063616E6E6F74206265207298
:1002900065736F6C7665640A005761697420666FD8
:1002A0007220757365722E2E2E00256973002569E4
:1002B0006D20256973002569682025696D202569F1
:1002C0007300256964202569682025696D202569EA
:1002D00073002569792025696420256968202569CE
:1002E0006D20256973005072696E742074696D65A4
:1002F0003A2000000111103025FF362F3723FF3937
:10030000383E21FFFFFF0907FFFFFF0A171618FFFE
:10031000FF241A191BFFFF22094106420208450368
:100320000844FFFFFFFFFFFF50726F746563746541
:10033000642050696E0A00B801B301AC01A50197B1
:10034000016F66660044454255473A004B494C4CA4
:1003500045442E20006F6B004361703A454D455275
:1003600047454E43595F5041525345523A300A0077
:100370004361703A434153455F4C494748545F429B
:1003800052494748544E4553533A300A004361702E
:100390003A544F47474C455F4C49474854533A30CD
:1003A0000A004361703A534F4654574152455F50DB
:1003B0004F5745523A300A004361703A4C45564512
:1003C0004C494E475F444154413A310A0043617001
:1003D0003A5A5F50524F42453A310A004361703AEF
:1003E0004155544F4C4556454C3A310A00436170D3
:1003F0003A5052494E545F4A4F423A310A004361E3
:10040000703A50524F47524553533A300A004361B5
:10041000703A4155544F5245504F52545F54454DD8
:10042000503A310A004361703A454550524F4D3AB7
:10043000310A004649524D574152455F4E414D45A4
:100440003A4372656174426F7420352E3620284C11
:10045000594E2920534F555243455F434F44455F02
:1004600055524C3A687474703A2F2F7777772E4331
:1004700072656174426F742E636F6D2F656E2F739A
:100480007570706F72742E68746D6C2050524F547A
:100490004F434F4C5F56455253494F4E3A312E30E1
:1004A000204D414348494E455F545950453A4372A7
:1004B000656174426F74204634333020455854527D
:1004C000554445525F434F554E543A322055554995
:1004D000443A30303030303030302D303030302D04
:1004E000303030302D303030302D30303030303012
:1004F0003030303030300A005072696E74206669D6
:100500006E69736865642E005072696E7420666946
:100510006E69736865642E005072696E74696E67E7
:100520002E2E2E005072696E74696E672E2E2E006C
:100530002F2F20007A5F6D696E3A2000795F6D6918
:100540006E3A2000785F6D696E3A20005265706FD8
:100550007274696E6720656E6473746F7020737453
:10056000617475730A0020643A0020693A002070B3
:100570003A0043290A0061626C656420286D696E47
:100580002074656D702000436F6C64206578747210
:10059000756465732061726520004F66660A0046C7
:1005A000616465204865696768742000426564205D
:1005B0004C6576656C696E6720004661696C6564A0
:1005C00020746F20656E61626C6520426564204C0A
:1005D0006576656C696E670A004D65736820706F9B
:1005E000696E742063616E6E6F742062652072653F
:1005F000736F6C7665640A004D34323120696E6326
:100600006F727265637420706172616D657465727A
:100610002075736167650A003A20007A5F6D696E24
:100620003A20202D3230207A5F6D61783A202032D6
:1006300030005A204F666673657420004E6F206349
:10064000617365206C696768740A003043005374F5
:10065000617274207072696E742066726F6D20739F
:10066000657269616C0A005072696E742066696E09
:1006700069736865642E0053746F70207072696EC0
:10068000742066726F6D2073657269616C0A006315
:10069000757272656E74205A2076616C75653A20A9
:1006A000007265636F766572205A2076616C75659D
:1006B0003A007265736574205A2076616C75653AEC
:1006C000007A70726F62655F7A6F66667365742018
:1006D000646F65736E2774206368616E67652C2094
:1006E00000556E6B6E6F776E20636F6D6D616E641B
:1006F0003A20220030303242003030323200303086
:100700003231003030323000303033300030303071
:1007100030003044004732380A4732390030303731
:1007200039003030373700542564204625640A00EC
:100730004D31303920542564205325640A004D364C
:100740003033322053256C7520212573004D36300F
:1007500030350A4D313137205072696E74696E67D9
:100760002E2E2E0047323820582059004D36303278
:1007700034004D36303233202573003031003032B2
:1007800000303300473238004732382059004732B2
:1007900038205800473238003044003030334500AC
:1007A0004372656174426F74204634333020726541
:1007B0006164792E005072696E7420706175736582
:1007C0006400303030300030373030003A090030CB
:1007D00033463000756E6B6E6F776E207661720AED
:1007E00000303338300030333730003033363000AB
:1007F0003033353000303334300030333330003074
:100800003332300030333130003033303000756EE9
:100810006B6E6F776E207661725F6C656E0A00306A
:100820003131370030313135003031313300303142
:100830003131003031374100303137390030313714
:100840003200303137310030313139003031313020
:100850000030313141003031304600303130450018
:1008600030313044003031304300303130420030DC
:1008700031303800303130360030313031003031F5
:1008800030300030303231003030323200303032EF
:1008900030003037303000303031460030303634C0
:1008A00000303034310030303532003030333000F9
:1008B00030303246003030323600303032350030A1
:1008C000303234003030323300303036380030309F
:1008D0003439003030344100303034380030303476
:1008E0003700303034350030303436003030343476
:1008F0000030303433003030333000303032460096
:100900003030323600303032350030303234003062
:1009100030323300555342206469736B2072656D29
:100920006F76656400555342206469736B20696E6D
:1009300073657274656400555342206469736B205B
:1009400072656164790030303345003030373200F1
:100950003030373100303037300030303532003011
:1009600030353200253032753A2530327500536803
:10097000757474696E6720646F776E2E2E20005335
:1009800068757474696E6720646F776E2E2E200010
:100990004B494C4C45442E20004B494C4C20636144
:1009A0007573656420627920746F6F206D7563685C
:1009B00020696E6163746976652074696D65202DA8
:1009C0002063757272656E7420636F6D6D616E6405
:1009D0003A20004E6F204C696E65204E756D626541
:1009E00072207769746820636865636B73756D2C1A
:1009F000204C617374204C696E653A20004B494C61
:100A00004C45442E200053544F505045442E200056
:100A10005072696E7465722073746F7070656420B3
:100A200064756520746F206572726F72732E204634
:100A3000697820746865206572726F7220616E64D7
:100A400020757365204D39393920746F20726573B4
:100A5000746172742E202854656D706572617475AE
:100A600072652069732072657365742E20536574F6
:100A70002069742061667465722072657374617296
:100A800074696E67290A004E6F20436865636B7353
:100A9000756D2077697468206C696E65206E756D60
:100AA0006265722C204C617374204C696E653A202B
:100AB00000636865636B73756D206D69736D617438
:100AC00063682C204C617374204C696E653A200079
:100AD0004C696E65204E756D626572206973206E7B
:100AE0006F74204C617374204C696E65204E756D77
:100AF0006265722B312C204C617374204C696E65D9
:100B00003A20004D313130004D3331004D38342022
:100B1000582059205A2045005344207265616420B2
:100B20006572726F720A005072696E742066696E27
:100B300069736865642E00446F6E65207072696E1B
:100B400074696E672066696C650A0020496E76617B
:100B50006C6964206578747275646572200024F491
:100B6000D43050C38E20C2A24017828B7011127AEB
:100B7000910D816CD90AA861E108C75866076151D7
:100B800043061E4B5D05C145A7041A411104093DEA
:100B90009803713931034036DB0265339102D4305A
:100BA0005402802E1D02632CEE01752AC501B02867
:100BB000A001102781018F2564012B244B01E02225
:100BC0003401AC211F018D200D01801FFC00841E0B
:100BD000ED00971DDF00B81CD200E61BC600201BED
:100BE000BC00641AB200B219A8000A19A0006A1861
:100BF0009900D117910040178B00B516840031166B
:100C00007E00B31579003A157300C7146F005814AD
:100C10006A00EE1366008813630025135E00C71296
:100C20005B006C12570015125400C1115100701175
:100C30004F0021114B00D61049008D10470046107F
:100C4000440002104200C00F4000800F3E00420FDF
:100C50003C00060F3B00CB0E3800930E37005C0EB5
:100C60003500270E3400F30D3200C10D3100900D18
:100C70003000600D2E00320D2D00050D2C00D90C1A
:100C80002B00AE0C2900850C29005C0C2700350CCC
:100C900027000E0C2600E80B2400C40B2400A00B38
:100CA00023007D0B23005A0B2100390B2100180B68
:100CB0002000F80A1F00D90A1E00BB0A1E009D0A68
:100CC0001D00800A1D00630A1C00470A1B002C0A35
:100CD0001B00110A1A00F7091A00DD091900C409DE
:100CE0001900AB091900920917007B091800630964
:100CF00017004C09160036091600200916000A09CB
:100D00001500F5081500E0081400CC081400B80818
:100D10001400A4081400900813007D0812006B084A
:100D20001300580812004608120034081100230866
:100D300011001208110001081100F0071000E0076F
:100D40001000D0071000C0071000B0070F00A10767
:100D5000100091070E0083070F0074070F0065074E
:100D60000E0057070E0049070E003B070D002E0727
:100D70000E0020070D0013070D0006070D00F906F1
:100D80000C00ED060D00E0060C00D4060C00C806B1
:100D90000C00BC060C00B0060C00A4060B00990663
:100DA0000C008D060B0082060B0077060B006C060C
:100DB0000B0061060A0057060B004C060A004206AB
:100DC0000A0038060A002E060A0024060A001A063F
:100DD0000A001006090007060A00FD050900F405CF
:100DE0000900EB050900E2050900D9050900D00555
:100DF0000900C7050900BE050900B5050800AD05D5
:100E00000800A50509009C050800940508008C054C
:100E10000800840508007C050800740508006C05BE
:100E20000700650508005D050700560508004E052A
:100E30000700470507004005080038050700310591
:100E400007002A050700230507001C0506001605F4
:100E500007000F0507000805060002050700FB0450
:100E60000600F5040700EE040600E8040600E204AC
:100E70000700DB040600D5040600CF040600C90401
:100E80000600C3040600BD040600B7040600B10452
:100E90000500AC040600A6040600A00405009B049F
:100EA000060095040500900406008A0405008504E8
:100EB0000500800406007A0405007504050070042E
:100EC00005006B04050066040500610405005C0470
:100ED000050057040500520405004D0405004804B0
:100EE0000500430405003E0404003A0405003504EF
:100EF0000500300404002C0405002704040023042A
:100F000005001E0404001A04040016040500110460
:100F100004000D0404000904050004040400000496
:100F20000400FC030400F8030400F4030400F003CD
:100F30000400EC030400E8030400E4030400E003FD
:100F40000400DC030400D8030400D4030400D0032D
:100F50000400CC030400C8030300C503030024F409
:100F600004D9201BC40C5C0E9804C4095F026507F9
:100F70007101F405F900FB04B30048048700C103C4
:100F800069005803550003034500BE023A0084027D
:100F9000310053022A002902250004022000E40146
:100FA0001C00C8011900AF0117009801140084014A
:100FB0001300710110006101100051010E00430186
:100FC0000D0036010B002B010B0020010B00150159
:100FD00009000C01090003010800FB000800F300F0
:100FE0000800EB000700E4000600DE000600D80061
:100FF0000600D2000600CC000500C7000500C200B4
:101000000500BD000400B9000400B5000400B100F3
:101010000400AD000400A9000400A5000300A20024
:1010200003009F0004009B0003009800030095004C
:10103000020093000300900003008D0002008B006B
:101040000300880002008600020084000300810083
:1010500002007F0002007D0002007B000200790098
:1010600002007700010076000200740002007200A6
:101070000100710002006F0002006D0001006C00B1
:1010800002006A00010069000200670001006600BA
:1010900001006500010064000200620001006100BF
:1010A0000100600001005F0002005D0001005C00C3
:1010B00001005B0001005A000100590001005800C6
:1010C00001005700010056000100550001005400C6
:1010D00001005300000053000100520001005100C4
:1010E0000100500001004F0001004E0000004E00C2
:1010F00001004D0001004C0001004B0000004B00BE
:1011000001004A00010049000100480000004800B9
:1011100001004700010046000000460001004500B4
:1011200000004500010044000100430000004300AE
:1011300001004200000042000100410000004100A7
:101140000100400001003F0000003F0001003E00A0
:1011500000003E0001003D0000003D0001003C0099
:1011600000003C0000003C0001003B0000003B0090
:1011700001003A0000003A00010039000000390087
:10118000010038000000380000003800010037007E
:101190000000370001003600000036000000360075
:1011A000010035000000350000003500010034006A
:1011B0000000340000003400010033000000330060
:1011C0000000330001003200000032000000320055
:1011D000010031000000310000003100010030004A
:1011E000000030000000300001002F0000002F0040
:1011F00000002F0000002F0001002E0000002E0034
:1012000000002E0001002D0000002D0000002D0028
:1012100000002D0001002C0000002C0000002C001C
:1012200000002C0001002B0000002B0000002B0010
:1012300000002B0001002A0000002A0000002A0004
:1012400000002A00010029000000290000002900F8
:1012500000002900000029000100280000002800EB
:1012600000002800000028000000280001002700DE
:1012700000002700000027000000270000002700D2
:1012800001002600000026000000260000002600C5
:1012900000002600010025000000250000002500B8
:1012A00000002500000025000000250001002400AA
:1012B000000024000000240000002400000024009E
:1012C0000100230000002300000023000000230091
:1012D0000000230000002300000023000100220082
:1012E0000000220000002200000022000000220076
:1012F0000000220001002100000021000000210068
:101300000000210000002100000021000000210059
:10131000010020000000200000002000000020004C
:10132000000020000000200000002000000020003D
:1013300001001F0000001F0000001F0000001F0030
:1013400000001F0000001F0000001F0001001E0021
:1013500000001E0000001E0000001E0000004D38AE
:101360003420582059205A20450008080808080051
:10137000000000004368616D6265720A0062656486
:101380000A002C2073797374656D2073746F70700C
:10139000656421204865617465725F49443A2000A4
:1013A000000020002300260029002C002F0032001E
:1013B00000010000030106010901050505050705F7
:1013C00008080808020202020A0A080804040404C1
:1013D00001010101010101010303030303030303ED
:1013E000040707070C0C0C0C0C0C0C0C020202027C
:1013F00006060606060606060B0B0B0B0B0B0B0B65
:101400000102102020080810204010204080020116
:1014100002010804020101020408102040808040FB
:1014200020100804020180040201804020100804FA
:101430000201080402010102040810204080010298
:1014400004081020408000000A0B02090C0D0E0851
:10145000070304010000000000000000000000007D
:10146000000000000000000000000000000000007C
:101470000000121110000000000000000000000039
:101480000000000000000000000000005625732E40
:1014900025303264253032642530326400257320D3
:1014A0002564202564004B494C4C45442E200020E7
:1014B0002D20496E76616C6964206578747275645C
:1014C0006572206E756D62657220210A00202043CE
:1014D0006F6E666967427566666572427974657398
:1014E0003A20002020506C616E6E6572427566660F
:1014F000657242797465733A2000204672656520F2
:101500004D656D6F72793A2000207C2041757468BA
:101510006F723A204372656174426F74204C594E69
:101520000A00417072203236203230323100204CB5
:1015300061737420557064617465643A20002046BC
:1015400069726D776172653A200020536F66747717
:101550006172652052657365740A00205761746377
:1015600068646F672052657365740A002042726F69
:10157000776E206F75742052657365740A0020457C
:10158000787465726E616C2052657365740A0050E0
:101590006F77657255700A004372656174426F74AB
:1015A000203344205072696E7465722053746172E6
:1015B00074203E3E3E0A00205A3A0020593A00204C
:1015C000583A00656E6473746F7073206869743A7A
:1015D000200020636F6C6420657874727573696F86
:1015E0006E2070726576656E7465640A0053544FA0
:1015F000505045442E20005072696E7465722073FD
:10160000746F707065642064756520746F206572F6
:10161000726F72732E204669782074686520657237
:10162000726F7220616E6420757365204D3939398F
:1016300020746F20726573746172742E2028546553
:101640006D7065726174757265206973207265735F
:1016500065742E2053657420697420616674657208
:101660002072657374617274696E67290A0053543D
:101670004F502063616C6C656420626563617573B3
:1016800065206F6620424C546F75636820657272E6
:101690006F72202D20726573746172742077697483
:1016A00068204D3939390A0042696C696E6561728A
:1016B000204C6576656C696E6720477269643A0AEA
:1016C0000020706F736974696F6E206F7574206F7E
:1016D000662072616E67652E0A003F50726F626508
:1016E0002000202F002040002042403A0020403AB5
:1016F0000048656174696E6720646F6E652E0048EE
:10170000656174696E672E2E2E0042656420646FD9
:101710006E652E0020573A0042656420486561746A
:10172000696E672E00303037370030303735003083
:101730003037330030303044003030304200303009
:101740003039003030303700303030340030303015
:101750003300303030380030303036003030303107
:10176000003030303000303037300030303731002A
:1017700030303732003030304500303030430030C8
:1017800030313700303031350030303133003030D7
:1017900031310030303139003030313000303031CB
:1017A000410030303046003030374100303037397A
:1017B000003138433300303036380031384333009D
:1017C0003030353800303333460030303638003072
:1017D0003333460030303538003138433300303051
:1017E000363000313843330030303530003030325D
:1017F000330025303275253032752530327500259D
:101800003034752530327525303275003030323441
:101810000030303236003030344500303036390058
:101820003030333000303032460030303732003024
:10183000303731003030373000303036460030300D
:1018400036450030303644003030364200303036D5
:1018500041003030373900303037370030303544D0
:101860000030303443003030363900303036380004
:1018700030303342003030343100303036390030CF
:101880003036380048656174696E67206661696C3E
:1018900065640048656174696E67206661696C659E
:1018A000640070012C0190012701B0012201C001E8
:1018B0001D01F00118011002130130020E01600237
:1018C000090190020401C002FF000003FA00400376
:1018D000F5008003F000D003EB002004E600700464
:1018E000E100E004DC004005D700C005D20040065E
:1018F000CD00D006C8008007C3003008BE00F00845
:10190000B900C009B400B00AAF00B00BAA00D00CF7
:10191000A500000EA000500F9B00C01096005012B2
:10192000910000148C00C0158700B0178200B01918
:101930007D00D01B7800001E730040206E009022B6
:101940006900F024640040275F0090295A00E02BD2
:101950005500102E500020304B0010324600E0336E
:10196000410090353C001037370070383200A03904
:101970002D00B03A2800A03B2300603C1E00103D23
:101980001900903D1400103E0F00703E0A00C03E4A
:101990000500003F0000403FFBFF803FF6FFC03FD7
:1019A000F1FF4572723A204D415854454D50204345
:1019B00048414D424552004D415854454D502074C8
:1019C0007269676765726564004572723A204D49B5
:1019D0004E54454D50204348414D424552004D49DB
:1019E0004E54454D50207472696767657265640096
:1019F0004572723A204D494E54454D50204245445F
:101A0000004572723A204D494E54454D50004D49A3
:101A10004E54454D50207472696767657265640065
:101A20004572723A204D415854454D50204245442C
:101A3000004572723A204D415854454D50004D4179
:101A40005854454D5020747269676765726564002B
:101A500000002100240027002A002D003000330060
:101A600001010000040107010A0100002200250015
:101A700028002B002E003100340002010000050177
:101A800008010B0120643A0020693A0020703A00F6
:101A90004B64200023646566696E652020444546DA
:101AA00041554C545F004B69200023646566696EA4
:101AB00065202044454641554C545F004B70200042
:101AC00023646566696E65202044454641554C5443
:101AD0005F00504944204175746F74756E652066CF
:101AE000696E697368656421205075742074686537
:101AF000206C617374204B702C204B6920616E64E4
:101B0000204B6420636F6E7374616E747320667211
:101B10006F6D2062656C6F7720696E746F20436F04
:101B20006E66696775726174696F6E2E680A00501F
:101B30004944204175746F74756E65206661696CE7
:101B40006564212074696D656F75740A005049449D
:101B5000204175746F74756E65206661696C65648B
:101B6000212054656D706572617475726520746FA3
:101B70006F20686967680A00204B643A2000204B98
:101B8000693A2000204B703A20000A20436C6173B0
:101B900073696320504944200A002054753A20009C
:101BA000204B753A2000206D61783A2000206D6945
:101BB0006E3A200020643A200020626961733A2066
:101BC000003044004D363030310046696C616D653F
:101BD0006E74204572726F72004D363030330030B3
:101BE00044004732380A47323900456E642066693E
:101BF0006C65206C6973740A00426567696E2066C3
:101C0000696C65206C6973740A002F00555342207B
:101C10004469736B207072696E74696E67206279B3
:101C2000746520004E6F7420555342204469736BD5
:101C3000207072696E74696E670A00D0070000D068
:101C40000700000A000000B80B00000000964300E7
:101C50000096430000204100002042F67A9D42CDCC
:101C60003B0343000020440000024320204D383550
:101C700031205A005A2D50726F6265204F6666738C
:101C8000657420286D6D293A0A002044002049001F
:101C900020204D33303420500020440020490020C3
:101CA000204D333031205000204400204900205086
:101CB0000020204D333031204500504944207365C9
:101CC0007474696E67733A0A00205A0020204D34FC
:101CD00032302053004175746F20426564204C659A
:101CE00076656C696E673A0A00205900205800201A
:101CF000204D323138205400486F74656E64206F77
:101D00006666736574733A0A00204500205A002005
:101D1000590020580020420020540020204D32302D
:101D200035205300416476616E6365643A20533C0C
:101D30006D696E5F66656564726174653E20543CD2
:101D40006D696E5F74726176656C5F6665656472FD
:101D50006174653E20423C6D696E5F7365676D65B9
:101D60006E745F74696D655F6D733E20583C6D6184
:101D7000785F78795F6A65726B3E205A3C6D617856
:101D80005F7A5F6A65726B3E20453C6D61785F6586
:101D90005F6A65726B3E0A002054002052002020CA
:101DA0004D323034205000416363656C657261745C
:101DB000696F6E2028756E6974732F7332293A200B
:101DC000503C7072696E745F616363656C3E205253
:101DD0003C726574726163745F616363656C3E201D
:101DE000543C74726176656C5F616363656C3E0A36
:101DF00000204500205A0020590020204D3230316B
:101E00002058004D6178696D756D20416363656C84
:101E100065726174696F6E2028756E6974732F73B3
:101E200032293A0A00204500205A0020590020207B
:101E30004D3230332058004D6178696D756D2066E4
:101E400065656472617465732028756E6974732F9B
:101E500073293A0A00204500205A0020590020200A
:101E60004D393220580053746570732070657220AC
:101E7000756E69743A0A0020204D323030204430AB
:101E80000A0020204D3230302054312044002020E0
:101E90004D3230302044002044697361626C6564C7
:101EA0000A0046696C616D656E74207365747469AF
:101EB0006E67733A002020473231202020203B20DB
:101EC000556E69747320696E206D6D0A003036009E
:101ED0003035003034003037004D3630303300308C
:101EE0003400303337300030333630003033353063
:101EF0000030333430003033333000303332300090
:101F00003033313000303330300030303441003045
:101F1000303439003030343800303034370030302D
:101F20003436003030343500303034340030303422
:101F300033003033333000466F6C64657220697350
:101F400020456D70747921003030353000303338E1
:101F500030003033373000303336300030333530F6
:101F6000003033343000303333300030333230001F
:101F700030333130003033303000303032340030E4
:101F800030323300303032360030303235003030CD
:101F900033300030303246003030333000303032B1
:101FA0003100303036390030303638003030364588
:101FB00000303036460030303644003030373000A4
:101FC000303037320030303731005072696E74690A
:101FD0006E672E2E2E00303034300020453A00201F
:101FE0005A3A0020593A0020436F756E7420583ACF
:101FF0000020453A00205A3A0020593A00583A0049
:1020000053657474696E672054726176656C204103
:102010006363656C65726174696F6E3A2000536525
:102020007474696E672052657472616374204163D1
:1020300063656C65726174696F6E3A2000536574F4
:1020400074696E67205072696E7420416363656CB9
:1020500065726174696F6E3A200053657474696EBD
:1020600067205072696E7420616E642054726176CC
:10207000656C20416363656C65726174696F6E3A6B
:102080002000205A00205900580020204D61783A45
:102090002000205A00205900580020204D696E3A37
:1020A00020004F6E20004F666600536F66742065F7
:1020B0006E6473746F70733A2000486F74656E6459
:1020C000206F6666736574733A00206F7574206FB5
:1020D000662072616E67650A00536572766F200034
:1020E0003A200020536572766F20002E0A00466960
:1020F0006C652073656C65637465640A00205369C0
:102100007A653A200046696C65206F70656E65647B
:102110003A20006F70656E206661696C65642C20E2
:1021200046696C653A20004E6F7720667265736869
:102130002066696C653A20004E6F7720646F696E87
:10214000672066696C653A200050726F62696E673D
:10215000206661696C65640A004572726F723A208C
:1021600000205A3A200020593A2000426564205845
:102170003A20002066697273740A005A00590058A8
:1021800000486F6D6520002072656164790A005512
:102190005342204469736B2072656D6F76650A0047
:1021A000555342204469736B20696E736572740ADB
:1021B00000555342204469736B2072656D6F7665DC
:1021C0000A004D3630313000544845524D414C20C4
:1021D00052554E4157415900546865726D616C20EB
:1021E00052756E6177617900696E76616C69642001
:1021F0007661726961626C65206164647265737393
:102200003A0900656E7175657565696E6720220013
:102210006563686F3A2000696E76616C6964207648
:1022200061726961626C6520616464726573733A9E
:102230000900526573656E643A20006F6B0020637D
:102240006F6C6420657874727573696F6E2070723C
:102250006576656E7465640A004372656174426FE9
:102260007420463433302072656164792E005072D8
:10227000696E74696E672E2E2E005072696E74201E
:102280007061757365640046696C616D656E74207C
:102290004572726F720030303431003030343100AA
:1022A0004372656174426F74204634333020726526
:1022B0006164792E000000000000000000000000B2
:1022C0000000004842000048420000204100000099
:1022D000005761726E696E673A20486F6D696E676C
:1022E0002042756D702044697669736F72203C20BE
:1022F000310A000202040000A0400000A0400000DB
:1023000000400000C8430000964300009643FFFFD2
:10231000FF46696E642066696C652C206E6F7420C0
:102320006469720A005072696E7465722068616C2B
:102330007465642E206B696C6C28292063616C6C59
:102340006564210A0041637469766520457874727A
:10235000756465723A20000049C411241FBECFEF96
:10236000D1E2DEBFCDBF00E00CBF13E0A0E0B2E0E1
:10237000E8E6F8EA01E00BBF02C007900D92A03931
:10238000B107D9F724E1A0E9B3E001C01D92AE374F
:10239000B207E1F711E1CDEAD1E100E006C02197F3
:1023A0000109802FFE010E9477D3CC3AD10780E04B
:1023B0000807A9F70E9433B90C9432D40C9400009A
:1023C0002F923F924F925F926F927F928F929F9245
:1023D000AF92BF92CF92DF92EF92FF920F931F9333
:1023E000CF93DF93CDB7DEB7EE970FB6F894DEBF8D
:1023F0000FBECDBF00911E0D20E6029F800111246B
:1024000001551C4F8091690D80FF1AC0E0E1F2E296
:1024100084917F013FEFE31AF30A811102C0780132
:1024200004C00E941741F701F3CFD7018D917D01C0
:10243000882319F00E941741F8CF8AE00E941741C3
:1024400010923105109230058FE380933905109278
:102450003805109237051092AA031092AB03109220
:10246000AC031092AD03F80180810F5F1F4F8032E3
:10247000D1F3DF018E34B1F4818190ED980F9A3061
:1024800020F08D3211F08B3269F43296DF013196F3
:102490002C9120532A30D0F3CD01DC0101962C91F0
:1024A0002032D9F3B0937605A09375057D01EFEF47
:1024B000EE1AFE0A1C916AE270E0C7010E94B0D3D6
:1024C000009731F0FC01319780818032E1F3118275
:1024D0001D3429F0143519F0173409F0E3C0F70161
:1024E00080812FEFE21AF20A8032C9F380538A30DA
:1024F00008F0D8C010933905209137053091380580
:102500004AE03196429FC001439F900D1124DF01A4
:1025100011972C91022E000C330B20533109280FF8
:10252000391F808180538A3060F3309338052093BF
:102530003705CF013196DC014C914032D1F31D3487
:1025400051F0609130057091310500917505EE24D0
:10255000E394F12C65C0273731056CF4253731053C
:10256000E4F42C313105C9F02E313105B1F02731B9
:10257000310539F712C02738E7E13E0771F02CF436
:10258000203A43E03407E9F608C02C3867E1360703
:1025900021F02E3877E13707A1F69093310580932B
:1025A000300580C0913209F445C04FEBB42EB90E0E
:1025B00059E1A52EAB1408F463C0AF01FA01808184
:1025C0004F5F5F4F8032D1F340ED480F4A3008F043
:1025D0004BC0AF018B2C912C640193E0D594C79430
:1025E0009A95E1F7C60186559C4F6C019B2D97701B
:1025F000D70102C0AA0FBB1F9A95E2F7CD01D60101
:102600009C91892B8C9341155105C1F1401BD4013C
:10261000A057BC4F4C93808181548A31B0F5DF01C3
:10262000FD0131969C919111BDCF7093310560935E
:10263000300538C01D3409F0B8CF2032310571F4AF
:10264000F0933105E093300563E270E0CF010E9422
:10265000B0D3009739F1DC011C9224C0203987E106
:10266000380709F0A2CFECCF43ED480F423008F411
:10267000B0CF8B3211F00C945929ABCF40E0C7CFCB
:102680006115710541F6BD01C6CFDF0131969C9100
:1026900090539A30D0F3CD01FC0101964081403235
:1026A000D9F3BDCF809139058D3411F40C94AA1B58
:1026B000843511F40C94FF28873411F00C943C29D4
:1026C00080913705909138058D31910509F4C0C28C
:1026D00074F48430910509F4A6C024F4029790F1B3
:1026E0000C9456294C9709F4DCC00C9456298A3571
:1026F000910509F4E8C64CF48E31910509F473C6CE
:102700008A9709F459C70C9456298B35910509F419
:10271000E5C68C35910511F00C94562985E40E948C
:102720007A40C82E0E947D49ECE5AE2EE2E0BE2E36
:10273000F9E7EF2EFEE0FF2E00E010E0D12C992407
:102740009394F0C680910D02882311F40C945629BD
:10275000F1E8CF2EF3E1DF2EA9E7EA2EAEE0FA2E64
:10276000B2E3AB2EB5E0BB2E0CE512E084E0982E70
:10277000900EF80181918F010E944B408823E1F077
:102780000E941840D5012C91211104C020913605DA
:10279000222331F0F701208131814281538103C02E
:1027A00020E030E0A9010E945ED1D6016D937D93B7
:1027B0008D939C9313970AC0F70180819181A28128
:1027C000B381F60180839183A283B383F4E0CF0EBB
:1027D000D11C24E0E20EF11C3FEFA31AB30A9012C1
:1027E000C8CF86E40E947A408823C9F00E9418402E
:1027F00020E030E0A9010E94C1D2181684F40E94A2
:10280000184020E030E040E752E40E94D5D16093C8
:102810003E0270933F0280934002909341020E94D7
:10282000E9A80C94562980E50E947A40882329F073
:102830000E94D83F6B017C0103C0C12CD12C7601D2
:1028400083E50E947A40882361F00E94184020E0CE
:1028500030E04AE754E40E9446CA0E9442D26B012B
:102860007C010E947D490E94ED4080917705909106
:102870007805A0917905B0917A05C80ED91EEA1E97
:10288000FB1E0E948170DC01CB018C199D09AE09F1
:10289000BF09B7FD02C00C94562980E00E94B82AF7
:1028A000F0CF0E947D49A090250DAAA280E00E9451
:1028B0001768B090AF0DBE8EA0906E05A8A68A2DA9
:1028C0008E7F80936E0521E040E050E0BA0180E009
:1028D0000E94F0B70E94F84081E08093CF0C88E519
:1028E0000E944B40282E89E50E944B40082F8AE524
:1028F0000E944B40382E211005C0011105C011E087
:10290000182705C0011102C010E001C0182F0E9455
:102910004E3E111105C0211003C0002309F40AC165
:1029200080E090E0A0EAB0E48093891390938A134A
:10293000A0938B13B0938C139C01AD016091810E19
:102940007091820E8091830E9091840E0E94E1C955
:1029500087FF0BC019821A821B821C82BE016F5F27
:102960007F4F89E893E10E94473E11110EC021106C
:1029700003C00111D9C0DEC0011107C080E090E0A2
:102980000E944BB31123A9F3CFC010927D0E109279
:102990007E0E10927F0E1092800E1092790E109281
:1029A0007A0E10927B0E10927C0E0E94913FEEE008
:1029B000F3E2B490BCA6E2E0F3E2C590D590E590D6
:1029C000F490E6E0F3E285909590A590B490A5018F
:1029D0009401C701B6010E94C1D218162CF4A701B8
:1029E0009601C501B40104C0A5019401C701B60157
:1029F0000E94D5D16CA37DA38EA39FA351EC652E1D
:102A000052E2752EF3016591759185919491E5ECF3
:102A10004E2EE2E25E2EF2012591359145915491C0
:102A20000E94E1C987FF02C0F30101C0F201459095
:102A30005590659074902CA13DA14EA15FA1CA0153
:102A4000B9010E9446CA20E030E040E85FE30E94FE
:102A50005ED10E94FAD29B01AC01C301B2010E9477
:102A600046CA6A8F7B8F8C8F9D8FEFE0F3E22491B3
:102A70002CA320E030E040EC5FE3C501B4010E94EC
:102A800046CA2B013C01ACA06A2DAA0C770B880B1F
:102A9000990B0E94E7C99B01AC01C301B2010E94DE
:102AA00046CA69837A838B839C8320E030E040ECC4
:102AB0005FE3C701B6010E9446CA6B017C01BCA45A
:102AC0006B2DBB0C770B880B990B0E94E7C99B0100
:102AD000AC01C701B6010E9446CA6E8B7F8B888FFE
:102AE000998F9E01265E3F4F41E85EE0BE016F5F19
:102AF0007F4FCE0146960E94653D10921D0D1092AB
:102B00007D0E10927E0E10927F0E1092800E10920B
:102B1000790E10927A0E10927B0E10927C0E11118B
:102B20002DCF21102BCF25CF81E090E00E944BB319
:102B3000111103C0332009F45FC08091D00C8111C2
:102B400003C0E0E1F2E242C08091D10C8823C9F3D6
:102B50000E94913F8091810E9091820EA091830EF0
:102B6000B091840E8093891390938A13A0938B1352
:102B7000B0938C1380E090E0A4E2B3E480938113DF
:102B800090938213A0938313B093841380E090E01A
:102B9000ACE9B2E48093851390938613A0938713D6
:102BA000B093881319821A821B821C829E012F5FA8
:102BB0003F4F41E85EE065E873E181E893E10E9400
:102BC000653D82E090E00E944BB316C084918F0176
:102BD0000F5F1F4F882321F00E941741F801F6CFA5
:102BE000EDEBF1E084918F010F5F1F4F882321F0FF
:102BF0000E941741F801F6CF0E94913F8091430E49
:102C00008093CF0C8AA10E9417680E94A56A2E8D1E
:102C1000223020F0822F0E94097807C021E040E096
:102C200050E0BA018E8D0E94F0B7A8A4A0926E0564
:102C30008EEC91E00E94BF6A882331F00E94C4A20A
:102C40008F3F11F00C9463290E94C28F0C94562977
:102C50000E942D9381110C9456293090250D87E503
:102C60000E944B40882309F413C18091700E90910B
:102C7000710E892BD1F4E9E5F1E284918F010F5FA8
:102C80001F4F882321F00E941741F801F6CFE6E597
:102C9000F2E084918F010F5F1F4F882311F40C9491
:102CA00056290E941741F801F4CFC090810ED090B0
:102CB000820EE090830EF090840E8AE50E947A40A6
:102CC000882321F00E9418406B017C0120E030E055
:102CD00040E251ECC701B6010E94C1D287FF03C098
:102CE000E9E5F1E20BC020E030E040E251E4C70149
:102CF000B6010E94E1C918169CF318C084918F0197
:102D00000F5F1F4F882321F00E941741F801F6CF73
:102D1000E9E4F2E084918F010F5F1F4F882311F4E3
:102D20000C9456290E941741F801F4CF88E50E94BF
:102D30007A40882329F00E9418402B013C0106C0EC
:102D4000412C512C40EC642E4FE7742E89E50E94F3
:102D50007A40882329F00E9418404B015C0106C08C
:102D6000812C912C30ECA32E3FE7B32E89E40E94F6
:102D70007A40882319F00E94F83F01C08FEF182F86
:102D80008AE40E947A40882319F00E94F83F01C02B
:102D90008FEF082FA3019201C301B2010E9438D323
:102DA000811154C0A5019401C501B4010E9438D31A
:102DB00081114CC06091511470915214072E000C77
:102DC000880B990B0E94E7C99B01AC01C301B201BA
:102DD0000E945DD120E030E0A9010E945ED120E098
:102DE00030E0A9010E94D5D10E943DD2162F6091FA
:102DF000531470915414072E000C880B990B0E94E9
:102E0000E7C99B01AC01C501B4010E945DD120E07E
:102E100030E0A9010E945ED120E030E0A9010E94CB
:102E2000D5D10E943DD217FD06C015300CF014E03C
:102E300067FF06C00AC067FF02C00C94682910E053
:102E4000062F65301CF004E001C000E0153010F0E2
:102E50000C945629063010F00C94562980E00E94FC
:102E6000176825E01202F0011124E00FF11D07FDA3
:102E7000FA95EE0FFF1FEE0FFF1FE351FC4EC082CD
:102E8000D182E282F382832D0E9417680C94562926
:102E90008AE40E944B40882321F00E9452680C94DF
:102EA000562986E50E947A40882329F00E94E83F4F
:102EB0007DA76CA702C01DA61CA66CA57DA56530CC
:102EC000710568F001E212E0F8018491882311F4A1
:102ED0000C9456290F5F1F4F0E941741F5CF84E4D1
:102EE0000E944B40282E882319F00E940940282E6A
:102EF0008AE50E947A40882339F00E9418406EAB20
:102F00007FAB88AF99AF04C01EAA1FAA18AE19AE36
:102F100083E50E947A40882319F00E94184004C07B
:102F200060E070E88BEB95E420E030E040E752E4AD
:102F30000E94D5D16093390270933A0280933B028C
:102F400090933C028CE40E947A40882319F00E94FE
:102F5000184004C060E070E084E292E40E943DD238
:102F60004B015C017DA36CA382E50E947A4088231B
:102F700019F00E94184004C060E070E885EC93E40A
:102F80000E943DD22B013C018B0186E40E947A40D5
:102F9000882319F00E94184004C060E070E08AE9BC
:102FA00092E40E943DD26E8F7F8F88A399A32E8DCD
:102FB0003F8D39A728A782E40E947A40882319F020
:102FC0000E94184004C060E070E883E993E40E9426
:102FD0003DD26B017C01AB016CA17DA131E064327B
:102FE000710534F0C2010997681779070CF430E0D5
:102FF00021E0013971E0170734F4C4010996801704
:1030000091070CF420E088A599A501E0883491058A
:1030100044F0C6010997A8A5B9A5A817B9070CF4EB
:1030200000E011E04D32B1E05B073CF48E8D9F8DE6
:103030000996841795070CF410E031110CC0222377
:1030400029F082E192E00E940FBE0DC001110BC079
:1030500011110FC018C08AE192E02EAF0E940FBE7E
:103060002EAD2111EECF002321F08AE092E00E94E4
:103070000FBE112311F40C94562983E092E00E94B4
:103080000FBE0C9456294818590857FE03C0E3E0B8
:103090004E0E511C5594479455944794B201052CFB
:1030A000000C880B990B0E94E7C96AAB7BAB8CAB19
:1030B0009DAB2E8D3F8DC21AD30AD7FE03C033E0DD
:1030C000C30ED11C86011595079515950795B80176
:1030D000012E000C880B990B0E94E7C96B017C0143
:1030E0006CA57DA5672BE1F0ECEEF1E084913F014A
:1030F0007FEF671A770A882321F00E941741F301B6
:10310000F5CF222069F0E3EDF1E084913F019FEFDC
:10311000691A790A882321F00E941741F301F5CF3B
:103120000E947D491092250D211006C084E690E092
:103130000E9457AA0E94913F81E00E9484688823E0
:1031400021F03092250D0C9456290E94F840609190
:10315000700E7091710E072E000C880B990B0E9457
:10316000E7C99B01AC016AA97BA98CA99DA90E9412
:10317000E1C9811124C06091720E7091730E072E07
:10318000000C880B990B0E94E7C99B01AC01C70199
:10319000B6010E94E1C9811112C080915114909131
:1031A0005214ACA1BDA1A817B90749F480915314DA
:1031B00090915414E8A5F9A5E817F907C1F021107A
:1031C0003092250D0E9452685092710E4092700EFE
:1031D0001093730E0093720E9092521480925114B9
:1031E000AE8CBF8CB0925414A0925314312C85E451
:1031F0000E944B408EA7882319F00E9409408EA799
:103200001BA21AA221E02FA7812C912C540131E09E
:1032100038AB45E049AB1E8E6CA17DA1072E000C9A
:10322000880B990B6CA37DA38EA39FA388A599A55A
:10323000092E000CAA0BBB0B88A799A7AAA7BBA7AE
:10324000FFA521E0F227FFA76AA17BA1072E000CB2
:10325000880B990B6AAF7BAF8CAF9DAFFE8D29A910
:10326000F21709F4ADC06CA17DA18EA19FA10E94AF
:10327000E7C94B015C01AE8D6A2FAA0F770B880B53
:10328000990B0E94E7C99B01AC016AA97BA98CA993
:103290009DA90E9446CA9B01AC01C501B4010E94D0
:1032A0005ED12B013C0168A579A58AA59BA50E944A
:1032B000E7C94B015C016AAD7BAD8CAD9DAD0E9451
:1032C000E7C99B01AC01C701B6010E9446CA9B0138
:1032D000AC01C501B4010E945ED14B015C0120E04C
:1032E00030E0A901C301B2010E94E1C987FD05C018
:1032F00020E030E040E05FE303C020E030E0A901DF
:10330000C301B2010E945ED10E946ED26E8B7F8B90
:10331000888F998F20E030E0A901C501B4010E9497
:10332000E1C987FD05C020E030E040E05FE303C075
:1033300020E030E0A901C501B4010E945ED10E94E5
:103340006ED269837A838B839C832CA54EA5BE01A4
:103350006F5F7F4FCE0146960E9499934B015C01AF
:103360009B01AC010E9438D3882321F03092250DB7
:103370000C94822925E03E8D3203800111246AA13C
:103380007BA1060F171F000F111F000F111F035104
:103390001C4E2EA93FA948AD59ADC501B4010E94EC
:1033A0005ED1D8016D937D938D939C93139780E0AC
:1033B0000E94B82ABE8DE8A9BE0FBE8F312C4ECF19
:1033C0006AA17BA16430710511F40C948229A501D6
:1033D0009401C501B4010E9438D3882311F40C94E0
:1033E0006C290C94822920E030E040E152E46091A5
:1033F000790E70917A0E80917B0E90917C0E0E94D6
:103400005ED16B017C0188E50E947A40882321F01F
:103410000E9418406B017C01CE8ADF8AE88EF98E0B
:1034200020E030E040E952E460917D0E70917E0E24
:1034300080917F0E9091800E0E945ED16B017C0185
:1034400089E50E947A40882321F00E9418406B0190
:103450007C01C982DA82EB82FC828E889F88A88CEC
:10346000B98C2AEF3EEF4FE052E4C501B4010E944F
:10347000C1D287FF02C00C94562921E230E048EC0B
:1034800053E4C501B4010E94E1C9181614F40C9468
:1034900056292DE73FEF4FE852E4C701B6010E94DD
:1034A000C1D287FF02C00C94562921E230E046E9E0
:1034B00053E4C701B6010E94E1C9181614F40C9434
:1034C00056290C94002A0E947D4980911F0D81117C
:1034D0000C945629109236050C9456290E947D4969
:1034E00080911F0D81110C94562981E0809336053F
:1034F0000C9456290E941840F701608371838283DF
:1035000093830330110531F0F801E053F34F9082BB
:10351000DD24D3940F5F1F4FF4E0EF0EF11C043055
:10352000110541F0D5018D915D010E947A408823FB
:1035300089F3E0CFDD2019F00E94913F85CBCC20AC
:1035400009F482CB2091960D3091970D4091980D02
:103550005091990D6091850E7091860E8091870E25
:103560009091880E0E9446CA0E94C6D26093010FB5
:103570007093020F8093030F9093040F0E947D4974
:103580008FB7F8944091010F5091020F6091030F93
:103590007091040F4093380C5093390C60933A0C9F
:1035A00070933B0C8FBF1092F10E1092F20E10929E
:1035B000F30E1092F40E48CB80910D02882311F483
:1035C0000C94562989E40E947A40182F882321F010
:1035D0000E94E83FF62E01C0F12C8AE40E947A4056
:1035E000082F882331F00E94E83FE62E111104C015
:1035F0000CC0E12C1123D1F074E0A72EAF1410F011
:103600000C94982AEAE7F2E005C064E0B62EBE14F6
:10361000C8F30CC084918F010F5F1F4F882311F4F2
:103620000C9456290E941741F801F4CF0E944E3E97
:103630001123F1F02091700E3091710E4F2D420345
:10364000B001439F700D1124809151149091521438
:10365000680F791F072E000C880B990B0E94E7C991
:1036600060938113709382138093831390938413D8
:103670000023F1F02091720E3091730E4E2D420313
:10368000B001439F700D11242091531430915414B4
:10369000620F731F072E000C880B990B0E94E7C95D
:1036A0006093851370938613809387139093881388
:1036B00080E50E944B408823A1F10E9409408823A5
:1036C00081F11123B1F020E030E040E152E460915B
:1036D00081137091821380918313909184130E94BF
:1036E0005DD16093811370938213809383139093C1
:1036F00084130023B1F020E030E040E952E460910F
:1037000085137091861380918713909188130E947E
:103710005DD1609385137093861380938713909384
:10372000881386E40E947A40882309F478C80E94AE
:1037300018406B017C0120E030E0A9010E94C1D259
:1037400018160CF06CC820E030E040E752E4C701E6
:10375000B6015BC880913705909138058C3D910585
:1037600009F4FCC60CF0DAC08D36910509F4D6C414
:103770000CF061C08135910509F4E0C45CF58F312E
:10378000910509F475C27CF48131910509F45BC29D
:103790002CF4029708F4D6C10C945629429709F4E8
:1037A000DAC40C9456298B34910509F443C32CF4E4
:1037B0008A9709F400C30C9456298C34910509F4B6
:1037C0003DC38D34910511F00C9456290E948198C7
:1037D0000C9456298C35910509F4DCC484F48335A6
:1037E000910509F4B3C40CF4ADC48435910509F412
:1037F000B2C48535910509F4B2C40C9456298A36B1
:10380000910509F493C454F48836910509F430C342
:103810008936910509F43DC40C9456298B369105DF
:1038200009F488C48C36910511F00C945629109235
:1038300000020C9456298937910509F4FBC5ACF5B3
:103840008337910509F4AAC4ACF48F36910509F4C5
:1038500059C30CF444C38037910509F4F6C3823789
:10386000910511F00C9456290E947D490E94C28F47
:103870000C9456298637910509F441C534F48537EF
:10388000910509F41CC50C9456298737910509F454
:103890006DC58837910511F00C94562981E080930D
:1038A000CF0C8093430E0C945629893C910509F462
:1038B0002BC6ACF48B39910509F405C434F48C386B
:1038C000910509F4CAC30C9456298E3B910509F45D
:1038D00029C4883C910509F4B2C50C9456298D3C45
:1038E000910509F435C66CF48B3C910509F42DC69D
:1038F0008C3C910511F00C9456290E94378F0C9442
:103900005629833D910509F426C68A3D910511F09B
:103910000C9456290E94E58D0C945629873E63E04D
:10392000960711F40C942B250CF076C08039A1E099
:103930009A0709F4F3C6BCF58D32E1E09E0709F45D
:1039400016C6E4F4823E910509F40BC64CF48D3D95
:10395000910511F00C9456290E94BE8D0C945629A5
:10396000883121E0920709F4FFC58C32914011F0B3
:103970000C9456290E944D8C0C9456298F3241E0AC
:10398000940709F4C8C60CF472C6803371E0970737
:1039900009F4F0C58336914011F00C945629E9E5FD
:1039A000F1E20C941425853AB1E09B0709F45EC757
:1039B00094F48239F1E09F0709F4B7C60CF4B1C65C
:1039C0008A3931E0930709F444C3843A914009F4F9
:1039D000B0C60C945629863F61E0960709F4E1C70A
:1039E00074F4843FA1E09A0709F4D8C7853F914059
:1039F00011F00C9456290E945EAF0C945629873F13
:103A0000E1E09E0709F4D1C78335934011F00C948F
:103A10005629E0E1F2E2D7C78D3727E1920711F48A
:103A20000C9479280CF045C0863747E1940711F4CF
:103A30000C949827DCF4823777E1970711F40C9403
:103A400024263CF48137974111F40C943B250C94C7
:103A500056298337E7E19E0711F40C942726853712
:103A6000974111F40C945B260C9456298A3727E170
:103A7000920711F40C94E7276CF4873747E1940719
:103A800011F40C94AE278837974111F40C94C62793
:103A90000C9456298B3777E1970711F40C9467281B
:103AA0008C37974111F00C9456290E94C2780C94DF
:103AB00056298738B7E19B0711F40C9486280CF53A
:103AC0008438F7E19F0711F40C947C284CF48E376E
:103AD000974111F00C9456290E949B780C9456291A
:103AE000853847E1940711F40C947F288638974174
:103AF00011F00C9456291092630F1092660F0C94DB
:103B000056298A3877E1970711F40C94AD286CF4A4
:103B10008838B7E19B0711F40C94932889389741B2
:103B200011F40C94A1280C9456298B38F7E19F07C7
:103B300011F40C94BE288039974111F40C94C128DB
:103B40000C945629E0903005F090310580E50E94F4
:103B50007A40882359F00E94D83F4B015C0111E064
:103B6000672B682B692B31F410E004C010E0812C26
:103B7000912C540183E50E947A40882399F00E9499
:103B8000184020E030E04AE754E40E9446CA0E9410
:103B900042D24B015C0111110CC0672B682B692BC1
:103BA00041F437C0111105C0E114F10411F00C9477
:103BB000562A81E08093760E0E947D490E94ED4056
:103BC00081149104A104B10481F180917705909151
:103BD0007805A0917905B0917A0575016401C80E48
:103BE000D91EEA1EFB1E0E948170DC01CB018C19DC
:103BF0009D09AE09BF09B7FD04C01092760E0C9462
:103C000056298091760E8823C1F380E00E94B82A5D
:103C1000EACFE114F10411F00C94562A81E080936C
:103C2000760E0E947D490E94ED4089E992E00E9453
:103C30000A870E9477878091760E8823F1F280E0D0
:103C40000E94B82AF8CF9FB7F89480910B018D7F1E
:103C500080930B019FBF89989FB7F89480910801CA
:103C60008E7F809308019FBF129815980C94562957
:103C70000E94B3975CE3C52ED12CE12CF12CA70157
:103C800096010E9400D1762E672ECA01B901A701C4
:103C900096010E9400D16B017C01CA01B90128E1A3
:103CA00030E040E050E00E9400D14B015C01C901CE
:103CB0006DE671E00E9450D38E010F5F1F4F6115BA
:103CC000710599F06F927F92DF92CF929F928F92BF
:103CD0009F938F937F936F9382ED92E09F938F9347
:103CE0001F930F930E9491C926C0009789F06F928D
:103CF0007F92DF92CF929F928F929F938F9382ECCD
:103D000092E09F938F931F930F930E9491C913C0CA
:103D100081149104A104B104B1F06F927F92DF92FB
:103D2000CF929F928F9286EB92E09F938F931F93F7
:103D30000F930E9491C90FB6F894DEBF0FBECDBF9E
:103D4000E0E1F2E223C0C114D104E104F10469F01E
:103D50006F927F92DF92CF928EEA92E09F938F9341
:103D60001F930F930E9491C9E6CF6F927F928AEAC8
:103D700092E09F938F931F930F930E9491C90F908E
:103D80000F900F900F900F900F90DACF84917F01DA
:103D9000BFEFEB1AFB0A882321F00E941741F701BD
:103DA000F5CFB80186EE92E00E9462538AE00E944D
:103DB00017410C94562983E50E947A40882311F418
:103DC0000C9456290E94F83FE82E80E50E947A4024
:103DD000882339F00E94E83F8B0177FF04C00C94E0
:103DE00056290DE010E0902FE3EFF2E085E38E0F0F
:103DF0002491921729F031968E13FACF0C94752ADC
:103E0000E9E5F1E284918F010F5F1F4F882321F0D4
:103E10000E941741F801F6CFE8E2F3E084918F01A8
:103E20000F5F1F4F882311F40C9456290E941741ED
:103E3000F801F4CF0E94519B0C9456298091550FA4
:103E40009091560F019711F00C94562982E090E062
:103E50009093560F8093550F0E94817060935F0F6F
:103E60007093600F8093610F9093620F0C945629AA
:103E700088E690E00E94844181110C94562980913B
:103E8000690D83FF02C00C94562983E50E947A4095
:103E9000882309F10E941840F090AE032F2D30E0E6
:103EA000220F331F89010650124F0E943DD2F801A4
:103EB000718360838F2D0E9440740E94184020E01F
:103EC00030E040E752E40E94E1C9181614F00E9465
:103ED00081980E9418400E948A530C9456298EE4BF
:103EE0000E947A40882311F40C9456290E94E83FDE
:103EF00060933D1370933E1380933F139093401350
:103F00000C94562983E50E944B40882359F083E5A1
:103F10000E947A40882319F00E94F83F01C080E097
:103F20008093690DE0E1F2E284918F010F5F1F4FF2
:103F3000882321F00E941741F801F6CFE5E4F3E071
:103F400084918F010F5F1F4F882321F00E9417413A
:103F5000F801F6CF8091690D8823A1F137E3C32ED4
:103F600033E0D32EE12CF12C20E08091690D90E01C
:103F70000E2C02C0959587950A94E2F780FF17C032
:103F8000BB24B394B20E222319F08CE20E94174195
:103F9000F60125913491F901849189010F5F1F4F3A
:103FA000882321F00E9417419801F5CF2B2DFFEFB8
:103FB000EF1AFF0A32E0C30ED11C45E0E416F1040B
:103FC000A1F63EC0E1E4F3E084918F010F5F1F4F43
:103FD0008823B1F10E941741F801F6CF8AE50E94CB
:103FE0004B40882309F413C50E9418406B017C01E3
:103FF00020E030E040EA51EC0E94C1D287FDFAC4D3
:1040000020E030E040EA51E4C701B6010E94E1C976
:1040100018160CF4EFC4C0929B0ED0929C0EE09246
:104020009D0EF0929E0E0E94E09A60919B0E709100
:104030009C0E80919D0E90919E0E42E00E94EF4456
:104040008AE00E9417410C9456298CE493E00E9468
:10405000E4B80E94457A0C9456298091690D83FF3B
:1040600002C00C94562983E50E947A40882311F4FB
:104070000C9456290E9418400E943DD2663A710560
:1040800014F065EA70E07093F90D6093F80D0C94EC
:10409000562989E690E00E94844181110C949F2A60
:1040A000E5E5F3E084918F010F5F1F4F882321F036
:1040B0000E941741F801F6CF0E9424638AE00E9413
:1040C00017410C949F2A83E50E947A40882311F4BB
:1040D0000C9456290E94F83F809374058D3318F094
:1040E0008CE3809374050E9481706B017C012091A8
:1040F000740530E0A8EEB3E00E944ED1DC01CB01A4
:104100008C0D9D1DAE1DBF1D809370059093710594
:10411000A0937205B09373050C9456290E94C7654D
:104120000C9456290E9433640C9456290E94036310
:104130000C9456290E94F4620C9456290E94E06265
:104140000C945629109235050C94562981E08093E1
:1041500035050C9456290E9434910C94562983E518
:104160000E944B40882311F40C9456290E94184059
:1041700020E030E04AE754E40E9446CA0E9442D25E
:1041800060937B0570937C0580937D0590937E05FD
:104190000C9456290E9496900C945629E3E3F4E07F
:1041A00084918F010F5F1F4F882321F00E941741D8
:1041B000F801F6CFE5E2F4E084918F010F5F1F4F25
:1041C000882321F00E941741F801F6CFEEE0F4E0D9
:1041D00084918F010F5F1F4F882321F00E941741A8
:1041E000F801F6CFEEEFF3E084918F010F5F1F4FE0
:1041F000882321F00E941741F801F6CFEDEEF3E09D
:1042000084918F010F5F1F4F882321F00E94174177
:10421000F801F6CFECEDF3E084918F010F5F1F4FB3
:10422000882321F00E941741F801F6CFEDECF3E06E
:1042300084918F010F5F1F4F882321F00E94174147
:10424000F801F6CFE8EBF3E084918F010F5F1F4F89
:10425000882321F00E941741F801F6CFE2EAF3E04B
:1042600084918F010F5F1F4F882321F00E94174117
:10427000F801F6CFEDE8F3E084918F010F5F1F4F57
:10428000882321F00E941741F801F6CFE0E7F3E020
:1042900084918F010F5F1F4F882321F00E941741E7
:1042A000F801F6CFE8E5F3E084918F010F5F1F4F2F
:1042B000882309F4FBC70E941741F801F5CF00914C
:1042C00030051091310564E275E0C8010E9440C9D3
:1042D000892B29F488E195E00E940A87E7C768E006
:1042E00075E0C8010E9440C9892B29F488EF94E049
:1042F0000E940A87DBC7C8010E94FD86D7C785E4F4
:104300000E944B40882381F00E940940882361F07D
:10431000E0E1F2E284918F010F5F1F4F882321F0CB
:104320000E941741F801F6CF81E40E944B40882398
:1043300081F00E940940882361F0E0E3F5E0849178
:104340008F010F5F1F4F882321F00E941741F80152
:10435000F6CF0091300510913105D8018D918D0176
:10436000882309F46DCE0E941741F7CFECE4F5E005
:1043700084918F010F5F1F4F882321F00E94174106
:10438000F801F6CFE4E4F5E084918F010F5F1F4F51
:10439000882321F00E941741F801F6CF309B03C01B
:1043A00000EA12E002C005EA12E0F80181918F01F3
:1043B000882319F00E941741F8CF8AE00E94174124
:1043C000ECE3F5E084918F010F5F1F4F882321F00C
:1043D0000E941741F801F6CF329B03C000EA12E0B9
:1043E00002C005EA12E0D8018D918D01882319F0F1
:1043F0000E941741F8CF8AE00E941741E4E3F5E0FC
:1044000084918F010F5F1F4F882321F00E94174175
:10441000F801F6CF349903C000EA12E002C005EAC1
:1044200012E0F80181918F01882309F409CE0E94DE
:104430001741F7CF1092CF0C1092430E37C788EC7C
:1044400090E00E948441811131C784E40E944B4076
:10445000882309F456C00E94184011E020E030E0A3
:10446000A9010E94E1C9811101C010E01093640EFE
:10447000112309F446C00091AE0310E00E941840D9
:10448000000F111F000F111FF801E45AF14F608354
:1044900071838283938320E030E0A90160915C0EF8
:1044A00070915D0E80915E0E90915F0E0E94E1C949
:1044B00081110CC080E090E0A0E4B0E480935C0E39
:1044C00090935D0EA0935E0EB0935F0E20E030E0FF
:1044D000A9016091600E7091610E8091620E9091C1
:1044E000630E0E94E1C981110CC080E090E0A0E45D
:1044F000B0E48093600E9093610EA093620EB0932F
:10450000630E0E9468A8D2C6BAE7EB2EBDE0FB2E70
:104510000CE512E084E0D82ED00ED8018D918D01EB
:104520000E944B40882349F00E9418400E9442D2CA
:10453000F7016083718382839383F4E0EF0EF11CB3
:10454000D012EBCF0E94BA53B1C60E94A08FAEC664
:104550000E94CD8EABC60E94528EA8C60E94D98DF5
:10456000A5C60E94628DA2C60E94958C9FC60E941D
:10457000AF809CC680E50E944B40882351F00E948A
:1045800018406093500C7093510C8093520C909390
:10459000530C89E40E944B40882381F00E9418400C
:1045A0002CEA35EC47E25EE30E9446CA60934C0C6D
:1045B00070934D0C80934E0C90934F0C84E40E94AA
:1045C0004B40882381F00E9418402CEA35EC47E2EA
:1045D0005EE30E94D5D16093480C7093490C8093A0
:1045E0004A0C90934B0CE0E1F2E284918F010F5F53
:1045F0001F4F882321F00E941741F801F6CF409108
:10460000500C5091510C6091520C7091530C8EE6ED
:1046100095E00E942C532CEA35EC47E25EE3609172
:104620004C0C70914D0C80914E0C90914F0C0E944F
:10463000D5D1AB01BC018AE695E00E940F532CEA6C
:1046400035EC47E25EE36091480C7091490C809133
:104650004A0C90914B0C0E9446CAAB01BC0186E605
:1046600095E00E940F538AE00E9417411FC683E520
:104670000E944B40182F882371F00E9418400E941E
:104680003DD270931B0260931A0221E0672B09F060
:1046900020E02093260D80E50E944B40882359F0AE
:1046A00020911A0230911B02232B11F00E94094025
:1046B0008093260DFBC51111F9C5E0E1F2E284916A
:1046C0008F010F5F1F4F882321F00E941741F801CF
:1046D000F6CF8091260D811103C06FEA72E002C00F
:1046E00062EA72E087E895E00E94625360911A02E4
:1046F00070911B0286E795E00E944953E2E7F5E0DE
:1047000084918F010F5F1F4F882309F4CFC50E944A
:104710001741F801F5CF0E941E7CC8C50E947D4953
:10472000C5C581E00E948468C1C580E00E9484689C
:10473000BDC586E50E944B40882341F08091700EF4
:104740009091710E892B11F00E9448BE83E50E9462
:104750004B40182F882319F00E940940182F83E539
:104760000E944B40882319F0812F0E9417688AE528
:104770000E944B40882321F00E9418400E94CF677E
:10478000F090250D111103C0E0E1F2E218C0F11024
:10479000FBCF09E511E2F8018491882329F00F5F2E
:1047A0001F4F0E941741F7CF0AEB15E0F8018491E3
:1047B000882351F30F5F1F4F0E941741F7CF849159
:1047C0008F010F5F1F4F882321F00E941741F801CE
:1047D000F6CFF11003C067EB72E002C063EB72E04A
:1047E0008CEA95E00E9462538AE00E941741E0E162
:1047F000F2E284918F010F5F1F4F882321F00E9406
:104800001741F801F6CFEFE9F5E084918F010F5FD2
:104810001F4F882321F00E941741F801F6CFC09066
:10482000210DD090220DE090230DF090240D20E07A
:1048300030E0A901C701B6010E94C1D218166CF080
:10484000EAE9F5E084918F010F5F1F4F882309F497
:104850002DC50E941741F801F5CF42E0C701B6010E
:104860000E94EF448AE00E94174120C589E40E941B
:104870007A40882321F00E94E83F162F01C01FEFE5
:104880008AE40E947A40882321F00E94E83F062FA4
:1048900001C00FEF8AE50E944B40F82E811105C040
:1048A00081E50E944B40D82E01C0D12C17FD02C0DB
:1048B00007FF03C0E9E5F1E205C0F1101AC0D1100D
:1048C00018C0F8CF84918F010F5F1F4F882321F00C
:1048D0000E941741F801F6CFE8EFF5E084918F01CF
:1048E0000F5F1F4F882309F4E1C40E941741F801AC
:1048F000F5CF153018F0E9E5F1E206C00530D8F73C
:1049000016C00E941741F80184918F010F5F1F4F5D
:104910008111F7CFE9EDF5E084918F010F5F1F4F13
:10492000882309F4C3C40E941741F801F5CFE12E92
:10493000110FFF08002E000C110B0E941840DD2003
:1049400099F025E02E9DF0012F9DF00D1124E00F30
:10495000F11FEE0FFF1FEE0FFF1FE351FC4E2081F2
:1049600031814281538103C020E030E0A901A5E0FC
:10497000AE9DF001AF9DF00D11240E0F1F1F000F13
:10498000111F000F111F03511C4E0E945ED1D80150
:104990006D937D938D939C93139788C40E94FCAC78
:1049A00085C480E00E94758581C483E50E944B40E8
:1049B000882319F00E94094001C081E091E0892715
:1049C0000E94548173C484918F010F5F1F4F88230D
:1049D00021F00E941741F801F6CFE2E3F6E084915E
:1049E0008F010F5F1F4F882309F4F8CA0E941741F7
:1049F000F801F5CFEBE1F6E084918F010F5F1F4FD7
:104A0000882309F41DCB0E941741F801F5CF40918E
:104A10009B0E50919C0E60919D0E70919E0E88E1B0
:104A200096E00E942C530CCB84918F010F5F1F4F97
:104A3000882321F00E941741F801F6CFECE3F6E05D
:104A400084918F010F5F1F4F882309F42FC40E94A8
:104A50001741F801F5CF81E080930D0283E50E94B4
:104A60004B40811103C00E94D2AC20C40E94094077
:104A700081111CC4F8CF8091640F882309F416C4F7
:104A80008091D00C882309F411C48091D10C882323
:104A900009F40CC48091D20C882309F407C480E186
:104AA000ECECF3E1A9E7BEE001900D928A95E1F705
:104AB0000E94913F0E944E3E8090E8139090E9132F
:104AC000A090EA13B090EB13C090960DD090970D84
:104AD000E090980DF090990D2091850E3091860E02
:104AE0004091870E5091880EC501B4010E945DD19E
:104AF000A70196010E9446CA0E943DD28B0120E088
:104B000030E040EC50E4C701B6010E9446CA0E9462
:104B10003DD20617170709F46EC0C090E413D09079
:104B2000E513E090E613F090E713A701960160917A
:104B3000810E7091820E8091830E9091840E0E945E
:104B4000E1C9811126C020E030E040E050E4C50119
:104B5000B4010E945DD160938D1370938E13809386
:104B60008F139093901320E030E040E85FE3C7019B
:104B7000B6010E945ED16093891370938A1380936B
:104B80008B1390938C1360E070E088E492E40E94B1
:104B9000623E20E030E040EC50E46091E813709118
:104BA000E9138091EA139091EB130E945DD1609319
:104BB0008D1370938E1380938F139093901320E036
:104BC00030E040E251E46091E4137091E51380918C
:104BD000E6139091E7130E945ED16093891370935E
:104BE0008A1380938B1390938C1360E070E088E4B9
:104BF00092E40E94623E8091D00C882361F080E0B4
:104C000090E0A8E4B3E48093811390938213A0937F
:104C10008313B09384138091D10C882361F080E0DA
:104C200090E0ACE5B3E48093851390938613A09352
:104C30008713B093881360E070E08CE892E40E94E0
:104C4000623E0E94583E32C30E94D4782FC30E9415
:104C50004E3E20E030E040EA51E460918D137091C7
:104C60008E1380918F13909190130E945DD1609369
:104C70008D1370938E1380938F139093901360E035
:104C800070E088E492E40E94623E0E947D490E94A6
:104C9000583E0E944EA885E00E946FA681E0809356
:104CA0002F0580916F05882309F400C38BE496E0FB
:104CB0000E94E5A2FBC20E944E3E81E08093D20C8E
:104CC00020E030E040E251E46091891370918A1352
:104CD00080918B1390918C130E94E1C987FF12C0C1
:104CE00080E090E0A0E2B1E48093891390938A136E
:104CF000A0938B13B0938C1360E070E088E492E48F
:104D00000E94623E20E030E040E451E460918D1367
:104D100070918E1380918F13909190130E945ED1A9
:104D200060938D1370938E1380938F1390939013D1
:104D300060E070E080E89FE30E94623EC090E8136C
:104D4000D090E913E090EA13F090EB1320E030E00C
:104D5000A901C701B6010E94E1C987FF1AC0A701D6
:104D6000960160918D1370918E1380918F139091A5
:104D700090130E945ED160938D1370938E13809375
:104D80008F139093901360E070E088E492E40E94A7
:104D9000623E8091E8139091E913A091EA13B091DB
:104DA000EB1380938D1390938E13A0938F13B09376
:104DB00090130E94583E0E94913F20E030E040EC6A
:104DC00050E460918D1370918E1380918F139091A8
:104DD00090130E945DD160938D1370938E13809316
:104DE0008F139093901360E070E088E492E40E9447
:104DF000623E8091DC139091DD13A091DE13B0919F
:104E0000DF138093811390938213A0938313B09345
:104E100084138091E0139091E113A091E213B0917B
:104E2000E3138093851390938613A0938713B09315
:104E3000881320E030E040E050E46091E41370918A
:104E4000E5138091E6139091E7130E945ED1609381
:104E5000891370938A1380938B1390938C1360E063
:104E600070E08CE892E40E94623E2DEC3CEC4CEC4D
:104E70005DE36091E4137091E5138091E6139091E6
:104E8000E7130E945ED16093891370938A13809315
:104E90008B1390938C1320E030E040E85FE3609147
:104EA000E8137091E9138091EA139091EB130E943B
:104EB0005DD160938D1370938E1380938F139093B5
:104EC000901360E070E088E492E40E94623E80917A
:104ED000E4139091E513A091E613B091E71380934A
:104EE000891390938A13A0938B13B0938C138091A2
:104EF000E8139091E913A091EA13B091EB1380931A
:104F00008D1390938E13A0938F13B093901360E042
:104F100070E080E89FE30E94623E0E94583E0E943B
:104F2000913F10926D058091EC130E941768BEC1ED
:104F30008091740E8111BAC181E08093740EEEE409
:104F4000F6E084918F010F5F1F4F882321F00E94AC
:104F50001741F801F6CF0E946887A8C18091740EAE
:104F6000882309F4A3C11092740EE7E7F6E0849158
:104F70008F010F5F1F4F882321F00E941741F80116
:104F8000F6CF87E696E00E940A8790C183E50E94EB
:104F90004B40882359F00E94D83F6093BC0D70931A
:104FA000BD0D8093BE0D9093BF0D08C01092BC0D37
:104FB0001092BD0D1092BE0D1092BF0D44E050E056
:104FC00060EB72E08CEB9DE00E94D0D06FC1C0908E
:104FD000970ED090980EE090990EF0909A0E20E0E7
:104FE00030E0A901C701B6010E94E1C981111EC0CC
:104FF000E1ECF6E084918F010F5F1F4F882321F0D1
:105000000E941741F801F6CF4091810E5091820E17
:105010006091830E7091840E8FE896E00E942C536D
:105020008AE00E9417410E94C28F40C18091D20C39
:10503000882309F443C06091810E7091820E8091A3
:10504000830E9091840E6E8B7F8B888F998FA70132
:1050500096010E945DD16093810E7093820E8093C1
:10506000830E9093840E0E94913F4091810E509147
:10507000820E6091830E7091840E82EB96E00E9406
:105080002C538AE00E9417410E94C28F19821A8213
:105090001B821C82BE016F5F7F4FCE0146960E942D
:1050A000473E4E895F89688D798D81EA96E00E943E
:1050B0002C538AE00E9417410E94C28F1092970ED3
:1050C0001092980E1092990E10929A0EEFC083E5EE
:1050D0000E947A40882331F00E94E83F6F3F7105BB
:1050E00019F010F06FEF70E070930C0260930B02F8
:1050F000DDC00E94AB78DAC00E947878D7C01092E9
:10510000630F1092660F0E949391D0C0809130057A
:10511000909131052091660F222309F4C7C061E008
:105120000E947995C3C08091660F882329F081E0A1
:105130008093630F1092640F0E94519B0E947787A7
:10514000B5C08091630F882329F01092630F81E02E
:105150008093640F0E947787A9C08091650F90E0CB
:10516000880F991F2091660F822B039709F09EC02C
:1051700083E50E944B408111CEC198C00E943378D4
:1051800095C08091630F81110E947D49E0903005A8
:10519000F090310580E50E944B40182F8091660FFA
:1051A0002091650F30E0220F331F282B233031056B
:1051B00089F661E06127882319F0C7010E9479957B
:1051C00083E50E944B40882361F00E94E83F609392
:1051D000FE117093FF1180930012909301120E94B0
:1051E0002C9B8091660F882329F081E08093630FC8
:1051F0001092640F1111AECF0E94519BABCF109152
:105200003705F12E8091AF0D181751F083E50E94FC
:105210004B40082F882329F00E940940082F01C025
:1052200001E086E40E947A40882319F00E94184029
:1052300003C060E070E0CB01B1E0BF1520F4812F26
:105240000E9409780CC020E030E040E752E40E9460
:10525000D5D1AB01BC01202F812F0E94F0B721E0F6
:1052600030E0C90101C0880F1A95EAF790916E05E8
:10527000892B80936E051AC0E0E1F2E284918F01E0
:105280000F5F1F4F882321F00E941741F801F6CFCE
:10529000609175057091760581EE96E00E946253EB
:1052A00082E20E9417418AE00E9417410E94B3AC3B
:1052B00046C16115710519F4BF016150710940E0E3
:1052C00050E00C94EA128FEF0E94CEA20C942416A8
:1052D00000E010E00C942E17EFA5EE2361F091E0B2
:1052E00098ABA5E0A9AB1E8EEAA1FBA13196FBA36A
:1052F000EAA30C942019FFEFF8AB2FEF29AB34E0B1
:105300003E8FF2CF80E00E948468882319F03092AB
:10531000250D51C0A5019401C501B4010E9438D3E7
:10532000811149C0211024C012E0A4E0EA2E02E05D
:10533000FE2CF11ADE2CD01A21E041E0602F812FE3
:105340000E94DBBE21E04FEF602F8F2D0E94DBBE5D
:105350002FEF41E06D2D812F0E94DBBE2FEF4FEF2D
:105360006D2D8F2D0E94DBBE015020F71150F8F6F5
:105370000E9448BE0E94626721101AC089E79EE021
:105380000E94A3AA9B01AC016091810E7091820ED4
:105390008091830E9091840E0E945DD16093810E66
:1053A0007093820E8093830E9093840E81E001C0EF
:1053B000832D8093250D0E94A56A0E94C28F809143
:1053C000250D81110E94913F81E080936C0544E09E
:1053D00050E06FE371E080E79EE00E94D0D044E0AF
:1053E00050E063E471E081E594E10E94D0D044E6AE
:1053F00050E06CE471E08DEE93E10E94D0D056CF86
:1054000080E00E9417680E94F84083E50E944B40AC
:10541000882309F449C00E94094021E0482FBE01B9
:105420006F5F7F4FCE0146960E9499936B017C017E
:105430009B01AC010E9438D3811131C02CEA35ECBC
:1054400047E257E36E897F89888D998D0E945ED1EE
:10545000AB01BC0182E792E00E940F532CEA35ECCD
:1054600047E257E369817A818B819C810E945ED1FA
:10547000AB01BC018DE692E00E940F532CEA35ECA3
:1054800047E257E3C701B6010E945ED1AB01BC0100
:1054900088E692E00E940F538AE00E9417410E9422
:1054A000A56A0E94C28F02CF81E0B7CFD7018C914D
:1054B000882311F40C94D91DE0E1F2E284918F016C
:1054C0000F5F1F4F882321F00E941741F801F6CF8C
:1054D000F70181917F01882319F00E941741F8CFCD
:1054E0008AE00E9417410C94D91D61E0802F0E9430
:1054F000466F6E2D802F0E94176FF12CB701802F01
:105500000E94826F0730110509F0D0CEF092600D35
:10551000E0925F0DCBCE0E94E83F6093FE11709346
:10552000FF1180930012909301120E942C9BBECE1B
:1055300001110C94051B0E944E3E0C941A1BEE9612
:105540000FB6F894DEBF0FBECDBFDF91CF911F9194
:105550000F91FF90EF90DF90CF90BF90AF909F9012
:105560008F907F906F905F904F903F902F90089515
:105570002F923F924F925F926F927F928F929F9263
:10558000AF92BF92CF92DF92EF92FF920F931F9351
:10559000CF93DF93CDB7DEB7C757D1090FB6F894D5
:1055A000DEBF0FBECDBF982E4DB65EB6E7965FAE9E
:1055B0004EAEE7970E9481706B017C010E94E4402F
:1055C000811108C00E94A34021E0853691051CF49A
:1055D00020E001C021E08091630F811102C0809121
:1055E000640F4091870550918805609189057091FD
:1055F0008A0526013701441A550A660A770AB3015B
:10560000A201485E53406109710977FD1FC08111F5
:1056100002C0222399F08091BC0D9091BD0DA09104
:10562000BE0DB091BF0D0196A11DB11D8093BC0DA3
:105630009093BD0DA093BE0DB093BF0DC092870592
:10564000D0928805E0928905F0928A0580918305C1
:1056500090918405A0918505B0918605A7019601DA
:10566000281B390B4A0B5B0BDA01C901805C97429E
:10567000A940B109B7FD2DC08091BC0D9091BD0D21
:10568000A091BE0DB091BF0D40917F055091800556
:10569000609181057091820584179507A607B70769
:1056A00081F080937F0590938005A0938105B0934E
:1056B000820544E050E060EB72E08CEB9DE00E94DC
:1056C000D0D0C0928305D0928405E0928505F092F7
:1056D00086050E9493918091650E882309F4A3C0EA
:1056E0000E9481700091660E1091670E2091680EE5
:1056F0003091690EDC01CB01801B910BA20BB30B27
:10570000B7FD91C02091060F8091050F30E090E029
:1057100001968F7099272817390709F484C0A09043
:10572000650EB12C0AE812E0C12CD12C712C80E559
:10573000882E93ECE92E27E4F22EC5010C2C02C032
:10574000959587950A94E2F780FF14C0F8013080A0
:10575000418052802380232D342D452D522D672DDD
:10576000782DC7010E94E1C987FD04C0732C842CE9
:10577000E52CF22CFFEFCF1ADF0A0C5F1F4F24E05D
:10578000C216D104D1F620E030E64AE657E4672D90
:10579000782DC7010E94E1C987FF43C0C090AF0DBB
:1057A0008091790E90917A0EA0917B0EB0917C0E33
:1057B00089839A83AB83BC8380917D0E90917E0E0A
:1057C000A0917F0EB091800E8D839E83AF83B887AA
:1057D0008091810E9091820EA091830EB091840EE3
:1057E00089879A87AB87BC87CE0101960E944C813E
:1057F00020E030E040E752E4672D782DC7010E9499
:10580000D5D17B018C0125E83EE0AE01475F5F4FBB
:10581000BE016B5F7F4FCE0101960E9452550E94E0
:10582000ED401092650E8091A81280FD11C0C090CD
:105830009D12D0909E12E0909F12F090A0120E94B4
:105840008170C616D706E806F90610F40C94793A6A
:105850008091A81281FD20C00E9467A161E085E0CF
:105860000E942FA10E9444A18091A812826080937F
:10587000A8120E948170DC01CB018053984FAF4F7A
:10588000BF4F8093AD129093AE12A093AF12B0931E
:10589000B0128FEF8093A1128091A81282FD06C0F2
:1058A0000E94B6A2863011F00C94A83A8091A612FC
:1058B000843021F41092A6121092601223E032E09C
:1058C000ABE8B5E041E050E46FB7F8948091501236
:1058D000909151126FBF891B8F7309F459C06FB734
:1058E000F8948091511290915012981731F0E82F4E
:1058F000F0E0E05FFD4E908101C09FEF8F5F8F73FE
:10590000809351126FBF8091A612811118C08091AF
:10591000A41281111092A4128091A51281111092EB
:10592000A51280918B05882329F0FD01452E119247
:105930004A94E9F79A3541F64093A612C5CF8130D3
:1059400041F4953A19F43093A612BECF1092A612E4
:10595000BBCF823049F48EEF890F8F33B8F7209395
:10596000A6129093A412B0CF833009F0ADCFE0918E
:10597000A51281E08E0F8093A512F0E0E557FA4F53
:1059800090839091A41289139FCF84E08093A612F4
:105990008091A612843009F0C7C080918B058138B0
:1059A00009F09EC08091A412853009F580918C0584
:1059B000833009F044C08091A81280FF40C08E7FE0
:1059C0008093A8121092A9121092AA121092AB12F0
:1059D0001092AC1280918E0590E0982F882720912C
:1059E0008F05822B9093A3128093A21228C084303B
:1059F00031F580918C05853011F58091A81281FFD9
:105A00001EC08D7F8093A8121092AD121092AE121C
:105A10001092AF121092B01280918E058A3569F4FF
:105A200081E08093A1120E9467A16BEB72E085E098
:105A30000E9494A20E9444A102C01092A1128091DF
:105A4000A412843009F069C080918C058F3409F06C
:105A500064C08091A81282FF60C08B7F8093A812DF
:105A60001092B1121092B2121092B3121092B4129C
:105A700080918E05811131C00E94B6A2863009F452
:105A80004CC0E0915B1281E08E0F877090915A12AA
:105A9000891751F0F0E03196E770FF27EE5AFD4E7E
:105AA000108180935B1201C010E00E9467A1809179
:105AB000DF0E9091E00E029771F480E88093A20EC1
:105AC0008FE48093A30E1093A40E86E090E0909351
:105AD000E00E8093DF0E0E9444A10E94A5A11DC08C
